:020000040800F2
:10000000083A00204501000841630008351A00083D
:100010003D630008BB090008ED7B000800000000FC
:10002000000000000000000000000000C57600088D
:10003000E10E000800000000ED630008C57800082C
:100040005F0100085F0100085F0100085F01000810
:100050005F0100085F0100085F0100085F01000800
:100060005F0100085F0100085F0100085F010008F0
:100070005F0100085F0100085F0100085F010008E0
:100080005F0100085F0100085F0100085F010008D0
:100090005F0100085F0100085F0100085F010008C0
:1000A0005F0100085F0100085F0100085F010008B0
:1000B0005F010008297900085F0100085F0100085E
:1000C0005F0100085F0100085F0100085F01000890
:1000D0005F0100085F0100085F0100085F01000880
:1000E0005F0100085F0100085F0100085F01000870
:1000F0005F0100085F0100085F0100085F01000860
:100100005F0100085F0100085F0100085F0100084F
:100110005F0100085F0100085F0100085F0100083F
:100120005F0100085F0100085F0100085F0100082F
:10013000DFF80CD000F03EFB004800473186000895
:10014000083A00200648804706480047FEE7FEE7D9
:10015000FEE7FEE7FEE7FEE7FEE7FEE7FEE7FEE777
:10016000C97800083101000810B5044604E00B7896
:1001700000F8013B03B1491C521EF8D2204610BDC5
:10018000421C10F8011B0029FBD1801A70472DE991
:10019000FE4F804681EA0300C00F0C46009021F01C
:1001A000004123F00045B8EB0200A94105D24046CA
:1001B000214690461C460B46024623F00040104361
:1001C00047D0270DC7F30A00C3F30A510290401A23
:1001D000019040286BDAC3F3130040F4801B0098B1
:1001E000924620B10023D2EB030A63EB0B0B01987C
:1001F0005946C0F14002504600F023FA06460D462B
:1002000050465946019A00F03BFA10EB0800614154
:10021000002487EA115284EAE7731A4340D0009A17
:1002200062B3019A012A4FEA075215DC001B61EB09
:1002300002014FF0004202EA0752CDE90042001CE1
:1002400041F5801132462B4600F039FA03B0BDE883
:10025000F08F40462146F9E7001B61EB0201001CCC
:1002600041F5801300185B412018A2F5001747EBF9
:10027000030140EAD570B6196D4111E06D084FEAEF
:10028000360645EAC0754FEA0752001B61EB0201D2
:10029000001C41F5801149084FEA30000019514116
:1002A00032462B4603B0BDE8F04F00F0FBB9009892
:1002B000012240000023D0EB020263EBE0730098C0
:1002C00021464FEAE074B8EB000061EB0401E9E776
:1002D00083F000435BE781F0004158E72DE9FE4FD2
:1002E00081EA030404F0004421F0004100944FF03F
:1002F000000B23F0004350EA01045ED052EA0304ED
:100300005BD0C3F30A54C1F30A552C44A4F2F3346E
:100310000194A0FB0254C1F3130141F48011C3F313
:10032000130343F4801301FB024400FB034E840AD1
:10033000970A44EA815447EA8357A4FB0768029569
:100340008D0A05FB07854FEA932C04FB0C54270507
:10035000029D4FEA065847EA1637B5EB08056EEBE3
:10036000070C870E920E47EA811742EA8312A7FB19
:100370000201B6EB0B0164EB00042B0D43EA0C33D6
:100380005E1844EB1C50DA465146E7FB0201C5F308
:1003900013044FEA0B3343EA14534FEA0432019C2F
:1003A00043EA0603A4F10C040294009CCDE900B4D6
:1003B00000F085F903B0BDE8F08F00200146F9E7B1
:1003C0002DE9F04D81EA030404F0004B21F00045D3
:1003D00014464FF0000A23F0004150EA050220D0F5
:1003E00054EA01021DD0C5F30A570246C5F31303B0
:1003F000C1F31300C1F30A5640F4801543F480138F
:10040000A7EB0608101BD64608F2FD3873EB050073
:1004100002D308F1010801E092185B41B8F1000F26
:1004200003DA00200146BDE8F08D00204FF4801172
:10043000064684460EE0171B73EB050705D3121B17
:1004400063EB050306434CEA010C49084FEA300010
:1004500092185B4150EA0107EDD152EA030012D035
:1004600082EA040083EA0501084305D0101BAB4172
:1004700006D20122002306E000224FF0004302E0F2
:100480006FF0010253101AEB06004CEB085110EB11
:100490000A0041EB0B01BDE8F04D00F003B90EB5C9
:1004A000C10F80EAE0700844CA07002140F23343DC
:1004B0008DE80E000A460B4600F001F903B000BDBE
:1004C0000EB540F2334102910021CDE900110A46F8
:1004D0000B4600F0F4F803B000BD3EB5CA17CB0FD1
:1004E000002450405140C0186141DA0740F23343C4
:1004F0000094CDE901232246234600F0E0F803B042
:1005000030BD70B5C1F30A5201F000450024C1F3BB
:10051000130140F2FF3341F480119A4201DA0020C6
:1005200070BD40F233439A42A2F2334203DC52429E
:1005300000F096F800E090402C43F1D0404270BDAE
:1005400070B5C1F30A5201F000450024C1F3130154
:1005500040F2FF3341F480119A4202DA0020014652
:1005600070BD40F233439A42A2F2334203DC52425E
:1005700000F076F801E000F064F82C43F0D000239E
:10058000D0EB030063EB010170BD000030B5002922
:1005900004DB4FF00044404264EB0101002B04DB1C
:1005A0004FF00044524264EB03038B4208BF824287
:1005B00030BD000030B50B4601460020202201244A
:1005C00009E021FA02F59D4205D303FA02F5491B21
:1005D00004FA02F52844151EA2F10102F1DC30BD37
:1005E0002DE9F05F0546002092469B468846064668
:1005F000814640241BE0284641464746224600F0FB
:100600002FF853465A46C01A914110D31146184646
:10061000224600F016F82D1A67EB01084F462246D5
:100620000120002100F00DF817EB00094E41201EBB
:10063000A4F10104DFDC484631462A464346BDE8C2
:10064000F09F202A04DB203A00FA02F100207047D4
:100650009140C2F1200320FA03F319439040704700
:10066000202A04DB203A21FA02F00021704721FA07
:1006700002F3D040C2F1200291400843194670476E
:10068000202A06DBCB17203A41FA02F043EAE07356
:1006900006E041FA02F3D040C2F120029140084343
:1006A0001946704710B5002B08DA401C41F10001D3
:1006B00092185B411A4301D120F0010010BD2DE9D1
:1006C000F04D92469B4611B1B1FA81F202E0B0FAC8
:1006D00080F220329046FFF7B4FF04460F4640EA0E
:1006E0000A0041EA0B0153465A46084313D011460B
:1006F00053EA010019D0C8F140025046FFF7B0FF9D
:1007000005460E46504659464246FFF79AFF0843B3
:1007100005D0012004E020463946BDE8F08D0020D8
:10072000054346EAE0762C4337430A986305E40A1A
:10073000A0EB08000022FD0A44EA47540A3002D523
:1007400000200146E9E7010510196941DDE9084586
:1007500000196941BDE8F04DA4E7C1F30A52C1F3A5
:10076000130140F2FF3341F480119A4202DA002073
:100770000146704740F233439A42A2F2334202DC10
:100780005242FFF76DBFFFF75CBF000030B5002994
:1007900004DB4FF00044404264EB0101002B04DB1A
:1007A0004FF00044524264EB0303994208BF904269
:1007B00030BD0000064C074D06E0E06840F0010344
:1007C00094E8070098471034AC42F6D3FFF7B4FC26
:1007D000148C0008348C000870B58D1810F8014B8B
:1007E00014F0030201D110F8012B231106D110F8E7
:1007F000013B03E010F8016B01F8016B521EF9D1C7
:10080000ABB110F8012B04F00C048A1A0C2C03D0A5
:10081000A2EB84129B1C08E010F8014BA2EB04220F
:10082000F8E712F8014B01F8014B5B1EF9D5A9421C
:10083000D4D3002070BD70B506460D461446202C5A
:1008400000DD202401F0CEF9AE2001F04BFA01F0DA
:1008500013FA301201F046FA01F00EFAF0B201F08C
:1008600041FA01F009FA01F0BDF9AF2001F03AFABE
:1008700001F002FA0FE0012C05D101F04FF92870C8
:1008800001F028F904E001F049F9287001F0D4F8EA
:10089000601EC4B26D1C002CEDD101F0C9F970BD11
:1008A0002DE9F04105460F461646202E00DD202694
:1008B00001F098F9AE2001F015FA00BF01F0DCF963
:1008C0000028FBD1281201F00DFA00BF01F0D4F985
:1008D0000028FBD1E8B201F005FA00BF01F0CCF925
:1008E0000028FBD1002409E0385D01F0FBF900BFCE
:1008F00001F0C2F90028FBD1601CC4B2B442F3DBA2
:1009000001F096F9BDE8F08170B5044601F06AF98E
:10091000AE2001F0E7F901F0AFF9201201F0E2F9A1
:1009200001F0AAF9E0B201F0DDF901F0A5F901F05A
:1009300059F9AF2001F0D6F901F09EF901F0EEF877
:10094000054601F0C7F801F073F9284670BD70B58F
:1009500004460D4601F046F9AE2001F0C3F900BF90
:1009600001F08AF90028FBD1201201F0BBF900BF89
:1009700001F082F90028FBD1E0B201F0B3F900BF29
:1009800001F07AF90028FBD1284601F0ABF900BF4D
:1009900001F072F90028FBD101F04AF970BD01465F
:1009A000080901F00F0200EB800302EB4303D8B209
:1009B000704710B507F04AF810BD00BFFEE7000011
:1009C000FEB5C5490879FFF7EAFF0546C2494879EF
:1009D000FFF7E5FF0646C0498879FFF7E0FF00F51D
:1009E000FA6401AB2A463146204600F047FE9DF8E6
:1009F00007209DF806109DF8053003F5FA6000F019
:100A0000D1FFB5490879FFF7CAFF0446B2494879D2
:100A1000FFF7C5FF0546B0498879FFF7C0FF0646D6
:100A20002B46324600210846009405F04FF8AA49AB
:100A30000878FFF7B4FF0646FFF742FD044622465A
:100A40000B460621022005F0DFF8A3484478E017A2
:100A500004EB107002111021402005F07DF99E4832
:100A60004478E01704EB10700011A4EB0010C2B240
:100A70001021502005F070F90A221021302005F0D5
:100A80006BF995488478E01704EB1070021110217F
:100A9000084605F061F990488478E01704EB10707F
:100AA0000011A4EB0010C2B21021202005F054F96F
:100AB00089490879FFF773FF054687494879FFF7A9
:100AC0006EFF064684498879FFF769FF00F5FA64EE
:100AD0002A463146204601F069F9082844D2DFE869
:100AE00000F043040D161F28313A00201023202265
:100AF00001460090602005F021FA35E00120102326
:100B0000202200210090602005F018FA2CE002203D
:100B10001023202200210090602005F00FFA23E02E
:100B200003201023202200210090602005F006FA07
:100B30001AE004201023202200210090602005F0FC
:100B4000FDF911E0052010232022002100906020F3
:100B500005F0F4F908E0062010232022002100907F
:100B6000602005F0EBF900BF00BF5B490879FFF793
:100B700016FF054658494879FFF711FF06465649C2
:100B80008879FFF70CFF00F5FA642A4631462046C3
:100B900000F0CAF900283DD14F490878FFF7FFFE61
:100BA000062190FBF1F201FB120003281FDA4B48EB
:100BB00003784B4802780421032004F0E1FF494800
:100BC00000210268032005F08BF8474801210268E4
:100BD000032005F085F8454802210268032005F04E
:100BE0007FF843A20321084605F07AF873E04148F4
:100BF00002780421032004F045FF3F4800210268E9
:100C0000032005F06DF83D4802210268032005F03D
:100C100067F860E030490878FFF7C1FE092190FBD2
:100C2000F1F201FB120003281FDA2C4803782C484C
:100C300002780421032004F0A3FF2A48002102685F
:100C4000032005F04DF8284801210268032005F033
:100C500047F8264802210268032005F041F824A243
:100C60000321084605F03CF835E01B490878FFF7FA
:100C700096FE092190FBF1F201FB1200062818DB19
:100C800015490879FFF78BFE064613494879FFF7A7
:100C900086FE074610498879FFF781FE00F5FA6560
:100CA00032463946284600F03FF9044605F02AFC52
:100CB00011E0104802780421032004F0E3FE0E48FE
:100CC00000210268032005F00BF80C48022102689D
:100CD000032005F005F8FEBD1B02002033020020B2
:100CE0002F020020483500204C35002050350020D0
:100CF000C4EA00003102002058350020543500209D
:100D000010B500241548006820F070601349086091
:100D10000846006840F00060086004E0601CC4B24F
:100D2000012007F0FFFB0E48006808B1642CF5DBDA
:100D3000642C01DB012010BD002404E0601CC4B25F
:100D4000012007F0EFFB0648006808B9642CF5DBCA
:100D5000642C01DB0120EEE70020ECE700080140F5
:100D60001801214208B50121042005F051FB402063
:100D7000ADF8000010208DF8030003208DF802006C
:100D80006946064800F0EAFB4021044800F073FC85
:100D900000F086F8FFF7B4FF08BD0000000801402E
:100DA00010B5002404E0601CC4B2012007F0BAFBB7
:100DB0000D48006808B1642CF5DB002404E0601CD9
:100DC000C4B2012007F0AEFB0748006808B9642CE4
:100DD000F5DB282007F0A6FB0348006808B10120D6
:100DE00010BD0020FCE700001801214270B500246E
:100DF000002506E06006040EFFF7D2FF0443681CDE
:100E0000C5B2082DF6DB204670BD2DE9FC4705462E
:100E10000E4617469846DDF8289000F041F8FFF797
:100E20006FFFB0BB002405E0FFF7E0FF0DF8040002
:100E3000601CC4B2052CF7DB9DF800009DF8011082
:100E400008449DF8021008449DF8031008449DF8DA
:100E5000041088420CD19DF8000038709DF8010004
:100E600088F800009DF8020028709DF8030030709B
:100E70009DF8010000F0800010B9002089F8000002
:100E80009DF8010000F08000012806D189F80000DB
:100E900003E0FFE70120BDE8FC870020FBE700003E
:100EA00010B50C48006820F070600A4908600846D8
:100EB000006840F040700860002007490860142076
:100EC00007F016FB01200549C1F898011E2007F024
:100ED00029FB10BD00080140980121420000214279
:100EE000704700B5034603E04FF47A7000F005F850
:100EF0001800A3F10103F7D100BD00EBC001C90048
:100F00004FF0E0225161002191610521116100BF84
:100F10004FF0E021096901F480310029F8D0042163
:100F20004FF0E022116170472DE9F04180460C46F8
:100F3000154601220521404600F038FF074607B953
:100F40000727C7F10F00C7B201220621404600F073
:100F50002DFF064606B90726C6F11600C6B2012CBB
:100F600004D1012D02D10120BDE8F081012C03D173
:100F7000082D01D10220F7E7012C03D1152D01D155
:100F80000320F1E7012C03D11A2D01D10420EBE756
:100F9000022C03D1022D01D10520E5E7022C03D15B
:100FA0000A2D01D10620DFE7022C03D10E2D01D13D
:100FB0000720D9E7022C03D10F2D01D10820D3E758
:100FC000022C03D1132D01D10920CDE7022C03D12E
:100FD000152D01D10A20C7E7022C03D1182D01D10C
:100FE0000B20C1E7032C03D1012D01D10C20BBE75D
:100FF000032C03D1032D01D10D20B5E7032C03D120
:10100000052D01D10E20AFE7032C03D1082D01D10E
:101010000F20A9E7032C03D10C2D01D11020A3E749
:10102000032C03D10E2D01D111209DE7032C03D1F8
:101030000F2D01D1122097E7032C03D1112D01D1DF
:10104000132091E7032C03D1152D01D114208BE738
:10105000032C03D1162D01D1152085E7032C03D1D4
:10106000172D01D116207FE7032C03D1182D01D1B4
:10107000172079E7042C03D1012D01D1182073E743
:10108000042C03D1022D01D119206DE7042C03D1CA
:10109000072D01D11A2067E7042C03D10F2D01D1B0
:1010A0001B2061E7042C03D1152D01D11C205BE727
:1010B000042C03D1162D01D11D2055E7042C03D19A
:1010C000172D01D11E204FE7042C03D1182D01D17B
:1010D0001F2049E7042C03D11A2D01D1202043E71A
:1010E000042C03D11B2D01D121203DE7052C03D178
:1010F000012D01D1222037E7052C03D1032D01D189
:10110000232031E7052C03D1042D01D124202BE726
:10111000052C03D1052D01D1252025E7052C03D170
:10112000082D01D126201FE7052C03D10C2D01D15C
:10113000272019E7052C03D10F2D01D1282013E713
:10114000052C03D1112D01D129200DE7052C03D148
:10115000122D01D12A2007E7052C03D1142D01D12E
:101160002B2001E7052C03D1162D01D12C20FBE605
:10117000052C03D1192D01D12D20F5E6052C03D125
:101180001B2D01D12E20EFE6052C03D11D2D01D101
:101190002F20E9E6052C03D11F2D01D13020E3E6F5
:1011A000062C03D1012D01D13120DDE6062C03D11F
:1011B000052D01D13220D7E6062C03D1062D01D111
:1011C0003320D1E6062C03D10B2D01D13420CBE600
:1011D000062C03D10C2D01D13520C5E6062C03D1F8
:1011E0000E2D01D13620BFE6062C03D1142D01D1DE
:1011F0003720B9E6062C03D1172D01D13820B3E6EC
:10120000062C03D1192D01D13920ADE6062C03D1CE
:101210001A2D01D13A20A7E6072C03D1012D01D1C7
:101220003B20A1E6072C03D1022D01D13C209BE6F7
:10123000072C03D1072D01D13D2095E6072C03D1C2
:101240000B2D01D13E208FE6072C03D11A2D01D1A1
:101250003F2089E6072C03D11F2D01D1402083E6D2
:10126000082C03D1012D01D141207DE6082C03D1AA
:10127000052D01D1422077E6082C03D1062D01D19E
:10128000432071E6082C03D1082D01D144206BE6E0
:10129000082C03D10C2D01D1452065E6082C03D183
:1012A000162D01D146205FE6082C03D11A2D01D15D
:1012B000472059E6092C03D1032D01D1482053E6DC
:1012C000092C03D1082D01D149204DE6092C03D169
:1012D000092D01D14A2047E6092C03D10A2D01D15D
:1012E0004B2041E6092C03D10E2D01D14C203BE6C9
:1012F000092C03D1122D01D14D2035E6092C03D143
:10130000142D01D14E202FE6092C03D1152D01D12A
:101310004F2029E6092C03D1162D01D1502023E6B8
:10132000092C03D11B2D01D151201DE60A2C03D11C
:10133000012D01D1522017E60A2C03D1042D01D131
:10134000532011E60A2C03D1052D01D154200BE6C0
:101350000A2C03D1092D01D1552005E60A2C03D111
:101360000A2D01D15620FFE50A2C03D10B2D01D106
:101370005720F9E50A2C03D10D2D01D15820F3E5B2
:101380000A2C03D10E2D01D15920EDE50A2C03D1F1
:101390000F2D01D15920E7E50A2C03D1102D01D1E1
:1013A0005A20E1E50A2C03D1112D01D15B20DBE5A8
:1013B0000A2C03D1162D01D15C20D5E50A2C03D1CE
:1013C000182D01D15D20CFE50A2C03D1192D01D1B3
:1013D0005E20C9E50A2C03D11F2D01D15F20C3E592
:1013E0000B2C03D1012D01D16020BDE50B2C03D1C5
:1013F000082D01D16120B7E50B2C03D1092D01D1B6
:101400006220B1E50B2C03D10A2D01D16320ABE59D
:101410000B2C03D10C2D01D16420A5E50B2C03D19D
:101420000E2D01D165209FE50B2C03D1102D01D18C
:10143000662099E50B2C03D1112D01D1672093E58E
:101440000B2C03D1142D01D168208DE50B2C03D179
:10145000152D01D1692087E50B2C03D1182D01D161
:101460006A2081E50B2C03D11C2D01D16B207BE57B
:101470000C2C03D1012D01D16C2075E50C2C03D16E
:10148000022D01D16D206FE50C2C03D1032D01D16C
:101490006E2069E50C2C03D1042D01D16F2063E58A
:1014A0000C2C03D1052D01D170205DE50C2C03D14E
:1014B000072D01D1712057E50C2C03D1092D01D145
:1014C000722051E50C2C03D10A2D01D173204BE57C
:1014D0000C2C03D10C2D01D1742045E50C2C03D12B
:1014E0000D2D01D175203FE50C2C03D1122D01D11A
:1014F000762039E50C2C03D1142D01D1772033E56A
:101500000C2C03D1152D01D178202DE50C2C03D105
:10151000192D01D1792027E50C2C03D11A2D01D1E9
:101520007A2021E5052C04D1781EA84201D17B2028
:101530001AE5052C03D1BD4201D17C2014E5062C0F
:1015400004D1701EA84201D17D200DE5062C03D1E7
:10155000B54201D17E2007E5002005E52DE9F041E7
:10156000024600250026002000230024002791F8D1
:1015700003C00CF00F0591F803C00CF0100CBCF187
:10158000000F03D091F802C04CEA050591F800C0A5
:10159000BCF1000F31D0146800202BE04FF0010C9B
:1015A0000CFA00F3B1F800C00CEA03069E4220D109
:1015B00083004FF00F0C0CFA03F7BC4305FA03FC51
:1015C0004CEA040491F803C0BCF1280F06D14FF097
:1015D000010C0CFA00FCC2F814C00AE091F803C038
:1015E000BCF1480F05D14FF0010C0CFA00FCC2F819
:1015F00010C0401C0828D1D31460B1F800C0BCF161
:10160000FF0F34DD546800202EE000F1080C4FF08D
:10161000010808FA0CF3B1F800C00CEA03069E4278
:1016200021D183004FF00F0C0CFA03F7BC4305FAED
:1016300003FC4CEA040491F803C0BCF1280F05D167
:1016400000F1080C08FA0CF8C2F8148091F803C0F5
:10165000BCF1480F07D100F1080C4FF0010808FA5F
:101660000CF8C2F81080401C0828CED35460BDE8A6
:10167000F081416170470161704700002DE9FF4F23
:1016800083B00C461F466421039890FBF1F0C0B272
:101690000190039890FBF1F201FB1200C5B2019892
:1016A000132806D00198142803D0002007B0BDE805
:1016B000F08F0198142806D105F1630000EB40007B
:1016C0001FFA80F904E0681E00EB40001FFA80F961
:1016D000694909F10200085C00F0600A4FEA6A1AE1
:1016E00009F10200085C00F01F0BBAF1010F04D1F0
:1016F000ABF1010000F0FF0803E00BF11E0000F069
:10170000FF080A2C07DA601E5C49095C059808444A
:10171000401E86B208E0A4F10A00594931F81010C1
:1017200005980844401E86B2022C08DDE91705EB37
:1017300091718910A5EB810109B9701C86B24645EB
:101740003EDBA6EB080086B20124012002900020B7
:1017500000904946029800F095F810B94FF01D0A24
:1017600001E04FF01E0A444911F80900C11700EBCF
:1017700011714FEA211B1DE0A6EB0A0086B2029808
:10178000401CC0B202905C4508D10098C043C0B272
:101790000090009820B9601CC4B201E0601CC4B283
:1017A0004946029800F06EF810B94FF01D0A01E0AA
:1017B0004FF01E0A5645DFDA701CC0B205904FE0AC
:1017C000A8EB060000F0FF081DB963251320019067
:1017D00001E0681EC5B2A9F103001FFA80F90C24CC
:1017E000254911F80900C11700EB11714FEA211BBF
:1017F000BBF1000F02D10C20029001E00D200290FD
:10180000002000904946029800F03CF810B94FF0D3
:101810001D0A01E04FF01E0A1BE0A8EB0A0000F0D1
:10182000FF080298401EC0B20290009808B9601EDE
:10183000C4B25C4503D10098C043C0B20090494691
:10184000029800F01FF810B94FF01D0A01E04FF0A8
:101850001E0AD045E1DCAAEB0800401CC0B205908E
:10186000019807F8010B07F8015B07F8014B059891
:10187000387001201AE70000308700081E8A00082F
:10188000288A000802460E2A70D2DFE802F0860796
:101890001019222B353F49535D67727C4048405CEC
:1018A00000F0080008B9002070470120FCE73C4820
:1018B000405C00F0040008B90020F5E70120F3E7E0
:1018C0003748405C00F0020008B90020ECE7012036
:1018D000EAE73348405C00F0010008B90020E3E784
:1018E0000120E1E72E4B481C185C00F0800008B98D
:1018F0000020D9E70120D7E7294B481C185C00F0ED
:10190000400008B90020CFE70120CDE7244B481C58
:10191000185C00F0200008B90020C5E70120C3E7EB
:101920001F4B481C185C00F0100008B90020BBE7F2
:101930000120B9E71A4B481C185C00F0080008B9F0
:101940000020B1E70120AFE7154B481C185C00F000
:10195000040008B90020A7E70120A5E7104B481CA8
:10196000185C00F0020010B900209DE715E001208E
:101970009AE70B4B481C185C00F0010008B90020E6
:1019800092E7012090E7064B881C185C00F080006D
:1019900008B9002088E7012086E7002084E70000DE
:1019A0003087000810B50A2390FBF3F403FB1403FF
:1019B000164C54F82330164C23600C2390FBF3F4A0
:1019C00003FB1403134C54F82330134C23600C23F3
:1019D00090FBF3F403FB1403104C54F82330104C29
:1019E00023601E2392FBF3F403FB14230D4C54F8E5
:1019F00023300D4C23600C2391FBF3F403FB1413F1
:101A00000A4C54F823300A4C236010BDC034002027
:101A100048350020E83400204C35002018350020DF
:101A2000503500205C35002054350020D43500208E
:101A30005835002000BFFEE710B51048006820F0C0
:101A400070400E4908600846006840F04050086049
:101A500000200B49086000F017F801200949C1F87F
:101A6000980100F011F800200549091F086000F0F6
:101A70000BF801200349C1F89C0110BD000C014086
:101A80009C812142008021420120002106E0222188
:101A900000BF0A00A1F1010399B2FAD10200A0F13E
:101AA000010398B2F3D1704708B50121082004F072
:101AB000AFFCC020ADF8000010208DF8030003201B
:101AC0008DF8020069460248FFF748FD08BD000096
:101AD000000C014010B50E48006820F070400C4921
:101AE00008600846006840F040500860012009493D
:101AF0000860FFF7C9FF01200749C1F89801FFF707
:101B0000C3FF00200349091F0860FFF7BDFF10BD98
:101B1000000C01409C8121420080214270B50024CC
:101B20001248006820F070401049086008460068BC
:101B300040F000400860002514E06006040E01201B
:101B40000B490860FFF7A0FF0A48D0F81C010128E4
:101B500001D1601CC4B2002005490860FFF794FF62
:101B6000681CC5B2082DE8DB204670BD000C0140A2
:101B7000988121420080214270B504460E461546E8
:101B800000F030F8D02000F0ADF800BF00F074F89D
:101B90000028FBD1304600F0A5F800BF00F06CF83B
:101BA0000028FBD100F01EF8D12000F09BF800BF08
:101BB00000F062F80028FBD10FE0012D05D1FFF7FE
:101BC000ADFF2070FFF786FF04E0FFF7A7FF20704E
:101BD000FFF732FF681EC5B2641C002DEDD100F086
:101BE00027F870BD10B50F48006820F070400D490F
:101BF00008600846006840F04050086001200A492B
:101C000008600A49C1F89C01FFF73EFF0020064921
:101C1000091D0860FFF738FF00200449C1F898014A
:101C200010BD0000000C014098812142008021423B
:101C300010B50E48006820F070400C490860084656
:101C4000006840F0405008600020094908600949D8
:101C5000C1F89C01FFF718FF0120054908600549FC
:101C6000C1F89C01FFF710FF10BD0000000C0140FF
:101C7000988121420080214210B51748006820F069
:101C80007040154908600846006840F04050086000
:101C9000012012490860FFF7F7FE0F48006820F0A6
:101CA00070400D4908600846006840F00040086038
:101CB00001200B49C1F898010848803800680128C4
:101CC00001D1012400E0002400200449091F08601C
:101CD000FFF7DAFE204610BD000C01409C81214236
:101CE0000080214270B504461848006820F070401A
:101CF000164908600846006840F04050086000251A
:101D000020E004F0800018B101201149086002E0D1
:101D100000200F490860FFF7B7FE01200C49091F9A
:101D20000860FFF7B1FE00200A49C1F89801072DAD
:101D300002D10120064908606006040EFFF7A4FEE8
:101D4000681CC5B2082DDCDB70BD0000000C014032
:101D50009C812142008021422DE9F04105460E463A
:101D60001746FFF73FFFD020FFF7BCFF00BFFFF78C
:101D700083FF0028FBD13046FFF7B4FF00BFFFF719
:101D80007BFF0028FBD1002409E0285DFFF7AAFFB4
:101D900000BFFFF771FF0028FBD1601CC4B2BC423A
:101DA000F3DBFFF745FFBDE8F08100002DE9F04FC0
:101DB0009DB004460D461646642094FBF0F994FB52
:101DC000F0F100FB114B3046FEF77AFBCDE916012E
:101DD000691C1A2201FB02F0FEF761FB0746002294
:101DE0003C4BFEF77BFA00223B4BCDE90C01FEF7A2
:101DF000E7FACDE90E0106F0ADFBCDE912014FEA9D
:101E00004900FEF74CFBCDE90E014846FEF747FBC3
:101E1000074600222F4BFEF761FA00222F4BCDE937
:101E20000401FEF7CDFACDE9060106F093FBCDE9FA
:101E30000A015846FEF733FB07460022254BFEF702
:101E40004DFA0022254BCDE90001FEF7B9FACDE9A4
:101E5000020106F07FFBCDE906015846FEF71FFBA5
:101E6000CDE90401DDE90623FEF791F9CDE908018A
:101E7000DDE90A23FEF78BF9CDE90C01DDE90E233C
:101E8000FEF726FACDE91001DDE91223FEF77FF90E
:101E9000CDE91401DDE91623FEF779F900220D4B97
:101EA000CDE91801FEF714FACDE91A01FEF729FB76
:101EB000824607209AFBF0F100FB11A018B9072019
:101EC0001DB0BDE8F08F07209AFBF0F100FB11A0D8
:101ED000C0B2F5E70000F03F0000244000001040D1
:101EE0001CB5FE480068002850D1FD480078002845
:101EF0004CD1FC480078002848D11420FEF7F1FFAF
:101F0000F6480068002841D1F548007800283DD106
:101F1000F4480078002839D100BFF0480068002854
:101F2000FBD0F1480078401CEF4908700846007863
:101F3000012803D103F0E5FE03F09CFDEA48007898
:101F4000052823D10020E849087003F0DAFE03F0E9
:101F500091FD0720FEF7D8FC012809D100201721A8
:101F600010232022CDE900101946602003F090FFD5
:101F70000720FEF7C9FC48B90020182110232022B1
:101F8000CDE900101946602003F082FFD3480068B5
:101F900018BBD348007801281FD1D2480078E0B997
:101FA0001420FEF79EFFCD480068B0B9CC480078F9
:101FB000012812D1CB48007878B900BFC748006823
:101FC0000028FBD0C9480078401CC8490870084662
:101FD0000078052801D101200870C048006818BBAE
:101FE000BF48007802281FD1BE480078E0B914200D
:101FF000FEF777FFB9480068B0B9B9480078022801
:1020000012D1B848007878B900BFB44800680028F9
:10201000FBD0B7480078401CB549087008460078E6
:10202000082801D101200870AC48006818BBAC48F2
:10203000007803281FD1AB480078E0B91420FEF7E0
:1020400050FFA6480068B0B9A5480078032812D10F
:10205000A448007878B900BFA04800680028FBD0E9
:10206000A4480078401CA34908700846007803285B
:1020700001D10120087099480C38006800287DD1F2
:1020800099480078002879D0984800780428FAD038
:10209000974800780728F6D09648007800286DD138
:1020A00090480078002869D11420FEF71AFF8B4869
:1020B0000C38006800287ED18B48007800287AD040
:1020C0008A480078042876D089480078072872D09A
:1020D0008848007800286ED18248007800286AD1AC
:1020E00000BF7E480C3800680028FAD003F009FED3
:1020F00003F0C0FC7A48007800285CD17A48007868
:1021000001281BD176490870032200217A48FFF785
:1021100033FD794800780190FEF741FC764908705C
:10212000084640780190FEF73AFC7349487008462B
:1021300080780190FEF733FC6F4988706A48007818
:10214000022825D1012066490870042203216B482A
:10215000FFF712FD694800780190FEF720FC6749FF
:102160000870084640780190FEF719FC63494870F2
:10217000084680780190FEF712FC00E01BE05F4902
:1021800088700846C0780190FEF709FC5B49C8706A
:1021900055480078032807D10220514908700622CB
:1021A00057490020FEF747FB4F480078042802D12A
:1021B00003204B49087049480C38006800287CD13E
:1021C00049480078002878D0484800780428F6D19B
:1021D000474800780728F6D0464800780028EED116
:1021E000404800780028EAD11420FEF77AFE3B48E8
:1021F0000C3800680028E2D13B4800780028E2D083
:102200003A4800780428DAD1394800780728DAD02B
:10221000384800780028D2D1324800780028CED142
:1022200000BF2E480C3800680028FAD035480078E6
:10223000012852D13448007801286FD12E48007807
:10224000019005F0D5FC2C490870084640780190B3
:1022500005F0CEFC2849487008468078019005F0CA
:10226000C7FC25498870032200212348FFF774FD2D
:1022700000201D4908701A4908701C49087022493D
:102280000870224908701A490870214908701949D4
:1022900008701449087003F034FD03F0EBFB0720CD
:1022A000FEF732FB01280BD100201721102320223A
:1022B000CDE900101946602000E0C0E003F0E8FD21
:1022C0000720FEF721FB40B900201821102320220F
:1022D000CDE90010194660201DE053E00C012142B9
:1022E000430200204B020020420200204402002052
:1022F000470200204902002024020020270200207B
:10230000340200204602002045020020480200203E
:102310004A02002002E003F0BBFD33E00020FE494A
:102320000870FE490870FE490870FE490870FE49B1
:102330000870FE490870FE490870FE490870FE49A1
:10234000087003F0DEFC03F095FB0720FEF7DCFAD3
:10235000012809D10020172110232022CDE90010E7
:102360001946602003F094FD0720FEF7CDFA48B926
:102370000020182110232022CDE9001019466020EA
:1023800003F086FDED480078022858D1E548007832
:10239000012855D1EA480078019005F029FCE84968
:1023A000087008464078019005F022FCE449487026
:1023B00008468078019005F01BFCE14988700846CA
:1023C000C078019005F014FCDD49C8700422032197
:1023D000DB48FFF7C1FC0020CF490870CF490870E7
:1023E000CF490870CF490870CF490870CF490870AD
:1023F000CF490870CF490870CF49087003F081FCBD
:1024000003F038FB0720FEF77FFA012809D10020EE
:10241000172110232022CDE900101946602003F077
:1024200037FD0720FEF770FA48B900201821102365
:102430002022CDE900101946602003F029FD33E089
:102440000020B5490870B5490870B5490870B5490C
:102450000870B5490870B5490870B5490870B549A4
:102460000870B549087003F04CFC03F003FB07202B
:10247000FEF74AFA012809D1002017211023202253
:10248000CDE900101946602003F002FD0720FEF799
:102490003BFA48B90020182110232022CDE9001072
:1024A0001946602003F0F4FCA648006800286ED1AD
:1024B0009948007800286AD099480078042866D0A6
:1024C0009A480078072862D19A48007800285ED19F
:1024D0009948007800285AD11420FEF702FD994847
:1024E000006800287FD18C48007800287BD08C4879
:1024F0000078042877D08D480078072873D18D485C
:10250000007800286FD18C48007800286BD100BF7C
:102510008C4800680028FBD083480078C0BB0021AD
:102520000720FEF714FA00207B4908707B490870E9
:102530007B4908707B4908707B4908707B490870AB
:102540007B4908707B4908707B49087003F0D9FB10
:1025500003F090FA0720FEF7D7F9012809D10020EF
:10256000172110232022CDE900101946602003F026
:102570008FFC0720FEF7C8F948B900201821102366
:102580002022CDE900101946602003F081FC2AE0EA
:10259000FFE701210720FEF7DAF900205E49087005
:1025A0005E4908705E4908705E4908705E490870AF
:1025B0005E4908705E4908705E4908705E4908709F
:1025C00003F09FFB03F056FA07225F490020FEF755
:1025D00067F90020172110232022CDE900101946A9
:1025E000602003F055FC5748006800286AD14A482B
:1025F0000078002866D04A4800780428FAD04B4872
:1026000000780728F6D04B4800780028F2D04A48D6
:1026100000780028EAD11420FEF763FC49480068DE
:102620000028E3D13C4800780028E3D03C480078FB
:102630000428DFD03D4800780728DBD03D480078EB
:102640000028D7D03C4800780028CFD100BF3D48B3
:1026500000680028FBD036480078A0BB00202E4937
:1026600008702E4908702E4908702E4908702E49AE
:1026700008702E4908702E4908702E4908702E499E
:10268000087003F03EFB03F0F5F90720FEF73CF974
:10269000012809D10020172110232022CDE90010A4
:1026A0001946602003F0F4FB0720FEF72DF948B926
:1026B0000020182110232022CDE9001019466020A7
:1026C00003F0E6FBA7E0FFE71948007801287DD179
:1026D00003F017FB03F0CEF90020322110231A4635
:1026E000CDE900100146302003F0D2FB0020332159
:1026F00010231A46CDE900100146402003F0C8FB24
:102700000020352110234022CDE900103021202067
:1027100003F0BEFB0D481BE04202002043020020F4
:102720004402002045020020480200204702002009
:102730004A020020490200204B02002046020020ED
:102740002702002000012142340200204F02002015
:102750000078E0BB0120362110231A46CDE9001095
:102760000021084603F094FB0120372110231A466C
:10277000CDE900100021184603F08AFB0020382123
:1027800010231A46CDE900100146602003F080FBBB
:102790000020392110231A46CDE90010014670208F
:1027A00003F076FB00203A2110231A46CDE90010F1
:1027B000302103F06DFB00203B2110231A46CDE9A8
:1027C00000103021184603F063FB01E018E013E02D
:1027D00000201F2110231A46CDE90010302160206F
:1027E00003F056FB0020202110231A46CDE90010EB
:1027F0003021702003F04CFB0120FE4908700AE0F4
:10280000FD480078022806D103F07BFA03F032F984
:102810000220F8490870F7480078022840F0BA878B
:10282000F6480078D8BB0020092110231A46CDE9CC
:1028300000100146184603F02BFB00200A2110234C
:102840001A46CDE900100146202003F021FB0020AC
:102850003C2110231A46CDE900100146302003F038
:1028600017FB00203D2110231A46CDE90010014638
:10287000402003F00DFB0020072110231A46CDE96C
:1028800000100146502003F003FB00200821102314
:102890001A46CDE900100146602003F0F9FAD84845
:1028A0000078E8BBD5480078D0BBD64880780A21AC
:1028B00090FBF1F0C0B201230246102101900020EC
:1028C00003F090FACF4880780A2190FBF1F201FBE7
:1028D0001200C0B20123024610210190084603F005
:1028E00081FA0A221021202003F036FAC5484078E8
:1028F0000A2190FBF1F0C0B20023024610210190A2
:10290000302003F06FFABF4840780A2190FBF1F2C3
:1029100001FB1200C0B2002302461021019000E02A
:1029200054E0402003F05EFA0A221021502003F008
:1029300013FAB44800780A2190FBF1F0C0B20023EA
:10294000024610210190602003F04CFAAD48007857
:102950000A2190FBF1F201FB1200C0B200230246F3
:1029600010210190702003F03DFA00201D2110235A
:102970001A46CDE90010302103F08AFA00201E210A
:1029800010231A46CDE900103021184603F080FAD2
:1029900000201F2110231A46CDE9001030216020AD
:1029A00003F076FA0020202110231A46CDE900100A
:1029B0003021702003F06CFA0020282110234022DF
:1029C000CDE900103021202003F062FA8C48007815
:1029D000012841D189480078F0BB8A4880780A21D3
:1029E00090FBF1F0C0B2002302461021019018467E
:1029F00003F0F8F9834880780A2190FBF1F201FB9B
:102A00001200C0B20023024610210190084603F0D4
:102A1000E9F90A221021202003F09EF97948407834
:102A20000A2190FBF1F0C0B201230246102101906F
:102A3000302003F0D7F9734840780A2190FBF1F277
:102A400001FB1200C0B20123024610210190402078
:102A500003F0C8F90A2200E050E01021502003F0F2
:102A60007BF9684800780A2190FBF1F0C0B200239E
:102A7000024610210190602003F0B4F9614800780B
:102A80000A2190FBF1F201FB1200C0B200230246C2
:102A900010210190702003F0A5F900201D211023C2
:102AA0001A46CDE90010302103F0F2F900201E2172
:102AB00010231A46CDE900103021184603F0E8F93A
:102AC00000201F2110231A46CDE90010302160207C
:102AD00003F0DEF90020202110231A46CDE9001072
:102AE0003021702003F0D4F9002028211023402247
:102AF000CDE900103021202003F0CAF940480078C9
:102B0000022841D13D480078F0BB3E4880780A2138
:102B100090FBF1F0C0B2002302461021019018464C
:102B200003F060F9374880780A2190FBF1F201FB4D
:102B30001200C0B20023024610210190084603F0A3
:102B400051F90A221021202003F006F92D4840787F
:102B50000A2190FBF1F0C0B200230246102101903F
:102B6000302003F03FF9274840780A2190FBF1F22A
:102B700001FB1200C0B20023024610210190402048
:102B800003F030F90A2200E05BE01021502003F04E
:102B9000E3F81C4800780A2190FBF1F0C0B2012351
:102BA000024610210190602003F01CF915480078BE
:102BB0000A2190FBF1F201FB1200C0B20123024690
:102BC00010210190702003F00DF900201D21102329
:102BD0001A46CDE90010302103F05AF900201E21D9
:102BE00010231A46CDE900103021184603F050F9A1
:102BF000002009E04B0200204A0200205102002080
:102C00004F0200204C0200201F2110231A46CDE95C
:102C100000103021602003F03BF900202021102318
:102C20001A46CDE900103021702003F031F9002060
:102C3000282110234022CDE900103021202003F06C
:102C400027F9FE48007803286CD1FD480078E8BBDE
:102C5000FC4880780A2190FBF1F0C0B200230246C4
:102C600010210190184603F0BDF8F64880780A213B
:102C700090FBF1F201FB1200C0B2002302461021CA
:102C80000190084603F0AEF80A221021202003F03C
:102C900063F8EC4840780A2190FBF1F0C0B20023C1
:102CA000024610210190302003F09CF8E54840785E
:102CB0000A2190FBF1F201FB1200C0B20023024690
:102CC00010210190402003F08DF800E02AE00A2254
:102CD0001021502003F040F8DA4800780A2190FBD8
:102CE000F1F0C0B20023024610210190602003F0F1
:102CF00079F8D44800780A2190FBF1F201FB120028
:102D0000C0B20023024610210190702003F06AF83F
:102D10000020272110234022CDE90010302120205F
:102D200003F0B6F8C848006858BBC84800780328C4
:102D300027D1C7480078022823D1C148007800BBBA
:102D40001420FEF7CEF8C0480068D0B9BF4800781C
:102D5000032816D1BE480078022812D1B84800785E
:102D600078B900BFB84800680028FBD0B3480078A5
:102D7000401CB249087008460078042801D10020A0
:102D80000870AE48007888BBAF48001F0068B8B92B
:102D90001420FEF7A6F8AC48001F006880B900BFF9
:102DA000A948001F00680028FAD0A6488078401C77
:102DB000A449887008468078172801DD00208870B3
:102DC000A1480838006888B91420FEF78AF89E48A0
:102DD0000838006850B99B48807810B91820994984
:102DE000887098488078401E96498870934800788B
:102DF000012831D19448001F0068B8B91420FEF7AB
:102E000070F89148001F006880B900BF8E48001F0D
:102E100000680028FAD08B484078401C89494870E7
:102E2000084640783B2801DD002048708648083875
:102E3000006888B91420FEF754F883480838006801
:102E400050B98048407810B93C207E4948707D4890
:102E50004078401E7B49487078480078022831D17C
:102E60007948001F0068B8B91420FEF73AF8764890
:102E7000001F006880B900BF7348001F0068002869
:102E8000FAD070480078401C6E49087008460078F7
:102E90003B2801DD002008706B480838006888B9BD
:102EA0001420FEF71EF868480838006850B96548D5
:102EB000007810B93C206349087062480078401ED1
:102EC000604908705D480078022838D15E48001FCC
:102ED0000068A0BB1420FEF704F85B48001F0068E0
:102EE00068BB00BF5848001F00680028FAD00120C6
:102EF0001D2110231A46CDE900103021002002F0D8
:102F0000C7FF01201E2110231A46CDE900103021F1
:102F1000184602F0BDFF00201F2110231A46CDE9FC
:102F200000103021602002F0B3FF00202021102388
:102F30001A46CDE900103021702002F0A9FF3F4869
:102F40000078032878D14048001F0068D0BB1420C7
:102F5000FDF7C7FF3C48001F006898BB00BF3A4818
:102F6000001F00680028FAD001201D2110231A46F6
:102F7000CDE900103021002002F08AFF01201E213F
:102F800010231A46CDE900103021184602F080FFC8
:102F900000201F2110231A46CDE9001030216020A7
:102FA00002F076FF0020202110231A46CDE9001000
:102FB0003021702002F06CFF0120264908700020AB
:102FC0001F490870204808380068B0BB1420FDF77E
:102FD00088FF1D480838006878BB00BF1A480838C9
:102FE00000680028FAD000201D2110231A46CDE9E0
:102FF0000010302102F04CFF00201E2110231A4641
:10300000CDE900103021184602F042FF01201F21B7
:1030100010231A46CDE900103021602002F038FF5D
:103020000120202110231A46CDE900103021702004
:1030300002F02EFF00200FE010E111E04F0200200F
:10304000510200204C0200200C01214243020020CA
:103050004B02002050020020FE490870FE49087013
:10306000FE480068F0BBFE480078032873D1FA4898
:103070000078B8BB1420FDF734FFF848006888BB1F
:10308000F7480078032866D1F348007850BBF14830
:10309000007840BB0020F3490870F3490870F349F9
:1030A0000870F3490870F3490870F3490870F34950
:1030B0000870F3490870F3490870E6490870E84958
:1030C000087002F01EFE02F0D5FC0720FDF71CFC84
:1030D00001280CD10020172110232022CDE9001057
:1030E000194601E037E011E0602002F0D1FE072030
:1030F000FDF70AFC78BB0020182110232022CDE91F
:1031000000101946602002F0C3FE24E00120D249DD
:10311000087002F0F6FD02F0ADFC00203221102311
:103120001A46CDE900100146302002F0B1FE002021
:10313000332110231A46CDE900100146402002F049
:10314000A7FE0020352110234022CDE900103021B8
:10315000202002F09DFEC048007801287ED1CA4898
:10316000007860B90120C8490870C8488078C8490B
:103170008870C64840784870C44800780870C348D2
:1031800080780A2190FBF1F0C0B202461021019034
:10319000002002F0E1FDBD4880780A2190FBF1F2A9
:1031A00001FB1200C0B2024610210190084602F055
:1031B000D3FD0A221021202002F0CEFDB348407832
:1031C0000A2190FBF1F0C0B202461021019030209C
:1031D00002F0C2FDAD4840780A2190FBF1F201FBFC
:1031E0001200C0B2024610210190402002F0B4FD4E
:1031F0000A221021502002F0AFFDA44800780A21D5
:1032000090FBF1F0C0B2024610210190602002F064
:10321000A3FD9E4800780A2190FBF1F201FB120009
:10322000C0B2024610210190702002F095FD99482D
:103230000088B0F57A7F6ADB0020964908809348C1
:10324000007800BB3C209149087008464078A8B936
:103250003C2048700846807858B900E04CE20846A7
:10326000407830B90846007818B900218A4804F03F
:1032700074FB86488078401E844988708348407873
:10328000401E8249487081480078401E7F4908707E
:1032900008468078D8BB08464078C0BB084600780E
:1032A000A8BB00217C4804F058FB01207B49087032
:1032B00002F027FD02F0DEFB79A20021084602F0B1
:1032C0000FFD40F6B830FDF70CFE02F01AFD02F0DB
:1032D000D1FB0020322110231A46CDE9001001460F
:1032E000302002F0D5FD0020332110231A46CDE90D
:1032F00000100146402002F0CBFD002035211023B4
:103300004022CDE900103021202002F0C1FD5348B9
:103310000C30006878BB5448007803282BD15948FA
:103320000078022827D14C480078012823D11420A6
:10333000FDF7D7FD49480C300068E0B94A480078ED
:10334000032818D14F480078022814D14248007849
:10335000012810D100BF41480C3000680028FAD085
:1033600054480078401C53490870084600780428E7
:1033700001D1002008704F480078E8BB01203621B9
:1033800010231A46CDE900100021084602F080FD06
:103390000120372110231A46CDE9001000211846DC
:1033A00002F076FD0020382110231A46CDE90010E6
:1033B0000146602002F06CFD0020392110231A46DE
:1033C000CDE900100146702002F062FD00203A2194
:1033D00010231A46CDE90010302102F059FD0020DB
:1033E0003B2110231A46CDE900103021184602F087
:1033F0004FFD00201F2100E011E010231A46CDE907
:1034000000103021602002F043FD00202021102315
:103410001A46CDE900103021702002F039FD254810
:10342000007801287ED10020362110231A46CDE9EC
:103430000010014602F02CFD0020372110231A460F
:10344000CDE900100146184602F022FD0120382186
:10345000102331E0500200205102002000012142DF
:103460004F020020420200204302002044020020BC
:103470004502002048020020470200204A020020A6
:10348000490200204B020020530200204C02002081
:103490005402002040020020000400405702002097
:1034A000B5B9BCC6CAB1CAB1BCE4B5BDC1CBA3A154
:1034B00000000000520200201A46CDE90010002151
:1034C000602002F0E5FC0120392110231A46CDE9E5
:1034D00000100021702002F0DBFC00203A211023B4
:1034E0001A46CDE90010302102F0D2FC00203B2129
:1034F00010231A46CDE900103021184602F0C8FC0E
:1035000000201F2110231A46CDE900103021602031
:1035100002F0BEFC0020202110231A46CDE9001045
:10352000302100E002E0702002F0B2FCFE4800789A
:1035300002284ED10020362110231A46CDE9001072
:10354000014602F0A5FC0020372110231A46CDE9E0
:1035500000100146184602F09BFC00203821102381
:103560001A46CDE900100146602002F091FC0020CF
:10357000392110231A46CDE900100146702002F0CF
:1035800087FC01203A2110231A46CDE90010302192
:10359000002002F07DFC01203B2110231A46CDE9DA
:1035A00000103021184602F073FC00201F21102368
:1035B0001A46CDE900103021602002F069FC00209D
:1035C000202110231A46CDE900103021702002F08E
:1035D0005FFCD548007803284DD100203621102308
:1035E0001A46CDE90010014602F052FC00203721B6
:1035F00010231A46CDE900100146184602F048FC97
:103600000020382110231A46CDE900100146602021
:1036100002F03EFC0020392110231A46CDE90010AB
:103620000146702002F034FC00203A2110231A4693
:10363000CDE90010302102F02BFC00203B211023AB
:103640001A46CDE900103021184602F021FC012075
:103650001F2110231A46CDE900103021602002F00E
:1036600017FC0120202110231A46CDE9001030213B
:10367000702002F00DFCAD480068E8BBAC48007853
:10368000012839D11420FDF72CFCA848006898BB0C
:10369000A748007801287DD1A348007848B9A548FB
:1036A000007830B90121A44804F057F90020A3495B
:1036B00008809D480078012803D100219E4804F02D
:1036C0004CF999480078022814D100219A4804F056
:1036D00044F9002097490870984908809849087073
:1036E00098488078984988709648407848709548FE
:1036F000007808708C4800E04CE00078032849D13D
:1037000000218D4804F029F900208C4908808F4958
:1037100008708F4908708F4908708F4908708F4969
:1037200008708F4908708F4908708F4908708F4959
:1037300008707F4908707C4908708D4908708D4970
:1037400008707C4908707E4908707F49887048700D
:10375000087002F0D6FA02F08DF90720FDF7D4F8D0
:10376000012809D10020172110232022CDE90010C3
:103770001946602002F08CFB0720FDF7C5F848B918
:103780000020182110232022CDE9001019466020C6
:1037900002F07EFB7548007801287DD167480088DB
:1037A000B0F57A7F21DB0020644908806648007804
:1037B000401C65490870084600783B2815DD00204C
:1037C000087008464078401C4870084640783B28FE
:1037D0000BDD0020487008468078401C8870084641
:1037E0008078172801DD00208870574880780A21EA
:1037F00090FBF1F0C0B2024610210190002002F0CF
:10380000ABFA514880780A2190FBF1F201FB1200DB
:10381000C0B2024610210190084602F09DFA0A2229
:103820001021202002F098FA474840780A2190FBA6
:10383000F1F0C0B2024610210190302002F08CFA63
:10384000414840780A2190FBF1F201FB1200C0B21E
:10385000024610210190402002F07EFA0A22102137
:10386000502002F079FA384800780A2190FBF1F0F4
:10387000C0B2024610210190602002F06DFA324879
:1038800000780A2190FBF1F201FB1200C0B202465F
:1038900010210190702000E0E4E102F05DFA23487D
:1038A0000C300068002867D1294800780328FAD135
:1038B0002E4800780128F6D11420FDF712FB1B4892
:1038C0000C3000680028EED1214800780328EAD1A6
:1038D000264800780128E6D100BF14480C30006863
:1038E0000028FAD022480078401C21490870084678
:1038F0000078042801D1002008701D48007890B994
:103900000120362110231A46CDE900100021084677
:1039100002F0BEFA0120372110231A46CDE900102B
:103920000021184629E065E05202002000012142F2
:1039300051020020570200200004004040020020F5
:1039400053020020540200204C02002042020020BA
:1039500043020020440200204502002048020020CB
:10396000470200204A020020490200204B020020AA
:103970004F0200205002002033E102F089FA0020BB
:10398000382110231A46CDE900100146602002F0CC
:103990007FFA0020392110231A46CDE90010014694
:1039A000702002F075FA00203A2110231A46CDE962
:1039B0000010302102F06CFA00203B2110231A463F
:1039C000CDE900103021184602F062FA00201F21D4
:1039D00010231A46CDE900103021602002F058FA79
:1039E0000020202110231A46CDE90010302170203C
:1039F00002F04EFAFE48007801284DD10020362111
:103A000010231A46CDE90010014602F041FA0020C9
:103A1000372110231A46CDE900100146184602F05E
:103A200037FA0120382110231A46CDE90010002171
:103A3000602002F02DFA0120392110231A46CDE929
:103A400000100021702002F023FA00203A211023F8
:103A50001A46CDE90010302102F01AFA00203B216D
:103A600010231A46CDE900103021184602F010FA52
:103A700000201F2110231A46CDE9001030216020BC
:103A800002F006FA0020202110231A46CDE900108A
:103A90003021702002F0FCF9D548007802284ED180
:103AA0000020362110231A46CDE90010014602F00D
:103AB000EFF90020372110231A46CDE90010014606
:103AC000184602F0E5F90020382110231A46CDE906
:103AD00000100146602002F0DBF90020392110239C
:103AE0001A46CDE900100146702002F0D1F90120FC
:103AF0003A2110231A46CDE900103021002002F0AF
:103B0000C7F901203B2110231A46CDE900103021CE
:103B1000184602F0BDF900201F2110231A46CDE9F6
:103B200000103021602002F0B3F900202021102382
:103B30001A46CDE900103021702002F0A9F9AC48F6
:103B4000007803284DD10020362110231A46CDE9F4
:103B50000010014602F09CF90020372110231A467C
:103B6000CDE900100146184602F092F900203821F4
:103B700010231A46CDE900100146602002F088F9B2
:103B80000020392110231A46CDE90010014670208B
:103B900002F07EF900203A2110231A46CDE90010E8
:103BA000302102F075F900203B2110231A46CDE99F
:103BB00000103021184602F06BF901201F2110235C
:103BC0001A46CDE900103021602002F061F9012091
:103BD000202110231A46CDE900103021702002F078
:103BE00057F984480068E8BB83480078D0B383481D
:103BF0000078042836D082480078072832D08148DF
:103C0000007878B38048007860B31420FDF769F934
:103C10007848006830BB7848007818B37748007857
:103C200004286ED07648007807286AD07548007856
:103C3000C0B175480078A8B16D48007830B901214D
:103C4000724803F08AFE00207149088068480078B5
:103C5000012803D100216D4803F07FFE64480078FD
:103C6000022800E04DE00AD10021684803F075FE0B
:103C700000206749088067490870487088705C4870
:103C8000007803283DD10021604803F066FE002043
:103C90005F490880584908705F49087057490870A3
:103CA0005E4908705E490870554908705D490870A2
:103CB0005449087054490870564988704870087013
:103CC00002F01FF801F0D6FE0720FCF71DFE0128C8
:103CD00009D10020172110232022CDE90010194618
:103CE000602002F0D5F80720FCF70EFE48B900204E
:103CF000182110232022CDE900101946602002F07F
:103D0000C7F83E480078012847D13B480078012891
:103D100003D03948007802283FD143A20121022074
:103D200001F0DEFF41A20321022001F0D9FF3FA2F2
:103D30000521022001F0D4FF00201D2110231A4686
:103D4000CDE90010302102F0A3F800201E2110233D
:103D50001A46CDE900103021184602F099F80020EB
:103D60001F2110231A46CDE900103021602002F0F7
:103D70008FF80020202110231A46CDE900103021B1
:103D8000702002F085F80020282110234022CDE980
:103D900000103021202002F07BF81848007802281B
:103DA00068D115480078012803D01348007802280C
:103DB00060D11EA20121022001F092FF1AA203216C
:103DC000022001F08DFF19A20521022001F088FFD9
:103DD00000201D2110231A46CDE90010302102F0E9
:103DE00057F800201E2110231A46CDE900101FE0CD
:103DF0004F02002000012142420200204402002024
:103E000047020020490200204B020020000400402D
:103E1000400200204C020020430200204502002006
:103E2000480200204A020020A1E1000020200000FA
:103E30003021184602F02CF800201F2110231A46CA
:103E4000CDE900103021602002F022F8002020216E
:103E500010231A46CDE900103021702002F018F826
:103E60000020282110234022CDE9001030212020FD
:103E700002F00EF8FE48007803284AD1FD48007889
:103E8000012803D0FB480078022842D1AFF2640237
:103E90000121022001F024FFAFF270020321022071
:103EA00001F01EFFAFF280020521022001F018FF91
:103EB00000201D2110231A46CDE90010302101F009
:103EC000E7FF00201E2110231A46CDE90010302103
:103ED000184601F0DDFF00201F2110231A46CDE90E
:103EE00000103021602001F0D3FF0020202110239A
:103EF0001A46CDE900103021702001F0C9FF0020E2
:103F0000282110234022CDE900103021202001F08B
:103F1000BFFFD748007804287ED1D6480078012812
:103F200003D0D4480078022876D1AFF200120121E4
:103F3000022001F0D5FEAFF20C120321022001F0A5
:103F4000CFFEAFF218120521022001F0C9FE0020B9
:103F5000272110234022CDE900103021202001F03C
:103F600097FFC5480068A8BB1420FCF7BAFFC248F9
:103F7000006878BB00BFC04800680028FBD0012063
:103F80001D2110231A46CDE900103021002001F038
:103F90007FFF01201E2110231A46CDE90010302199
:103FA000184601F075FF00201F2110231A46CDE9A5
:103FB00000103021602001F06BFF00202021102331
:103FC0001A46CDE900103021702001F061FF012078
:103FD000AA490870A848001F0068E8B91420FCF737
:103FE00080FFA548001F0068B0B900BFA248006864
:103FF0000028FBD000201D2110231A46CDE9001017
:10400000302101F045FF00201E2110231A46CDE982
:1040100000103021184600E018E001F039FF0120BF
:104020001F2110231A46CDE900103021602001F035
:104030002FFF0120202110231A46CDE90010302146
:10404000702001F025FF00208C4908708948007815
:1040500001287DD18A4800780128FAD10020072163
:1040600010231A46CDE900100146202001F010FF70
:104070000020082110231A46CDE900100146302007
:1040800001F006FF0020092110231A46CDE9001097
:104090000146402001F0FCFE00200A2110231A46B0
:1040A000CDE900100146502001F0F2FE002024214D
:1040B00010231A46CDE900101946202001F0E8FE31
:1040C0000020252110231A46CDE900101946402072
:1040D00001F0DEFE0020262110231A46CDE9001053
:1040E0001946602001F0D4FE66488078024601211E
:1040F0000190084601F0C8FF62484078024603215B
:104100000190012001F0C0FF5E48007802460521C1
:104110000190012001F0B8FF55480078F0BBAFF2E4
:10412000F8220121022001F0DBFDAFF20032032171
:10413000022001F0D5FDAFF20C320521022001F082
:10414000CFFD01204A49087000201D21102300E006
:1041500002E11A46CDE90010302101F099FE00205D
:104160001E2110231A46CDE900103021184601F017
:104170008FFE00201F2110231A46CDE900103021A8
:10418000602001F085FE0020202110231A46CDE991
:1041900000103021702001F07BFE00E009E00020DB
:1041A000282110234022CDE900103021202001F0E9
:1041B0006FFE2F48007801283DD12F480068C8B90C
:1041C0001420FCF78EFE2C48006898B900BF2A48DE
:1041D00000680028FBD02B488078401C2949887053
:1041E00008468078019003F003FD232802DD0020BB
:1041F000244988702048001F0068E0B91420FCF7AB
:1042000070FE1D48001F0068A8B900BF1A48001FB3
:1042100000680028FAD01B488078019003F0E8FC81
:1042200020B92420FCF7BBFB16498870154880781C
:10423000401E144988700E480078022847D10E4865
:10424000006830BB1420FCF74CFE0B48006800BB34
:1042500000BF094800680028FBD00A484078401C8D
:104260000849487008464078019003F0C1FC0BE013
:1042700044020020420200200801214245020020A1
:104280004302002024020020592802DD0020FE49BC
:104290004870FE480068D0B91420FCF722FEFB48A5
:1042A0000068A0B900BFF94800680028FBD0F648B4
:1042B0004078019003F09CFC20B96020FCF76FFB74
:1042C000F1494870F0484078401EEF494870F04886
:1042D000007803283DD1ED48001D0068D8B91420AE
:1042E000FCF7FFFDE948001D0068A0B900BFE748E2
:1042F000001D00680028FAD0E3480078401CE2491D
:10430000087008460078019003F072FC592802DD1D
:104310000020DD490870DD480068D0B91420FCF7A2
:10432000E0FDDA480068A0B900BFD848006800285E
:10433000FBD0D5480078019003F05AFC20B96020EA
:10434000FCF72DFBD0490870CF480078401ECE49BD
:1043500008700120CF490870CF48007802287DD12D
:10436000CE4800780128FAD100200B2110231A46EC
:10437000CDE900100146202001F08AFD00200C212B
:1043800010231A46CDE900100146302001F080FDCF
:1043900000200D2110231A46CDE9001001464020CF
:1043A00001F076FD00200E2110231A46CDE9001001
:1043B0000146502001F06CFD0020212110231A46F7
:1043C000CDE900101946202001F062FD00202221D5
:1043D00010231A46CDE900101946402001F058FD7F
:1043E0000020232110231A46CDE900101946602031
:1043F00001F04EFDAA48C07802460121019008460E
:1044000001F042FEA6488078024603210190012077
:1044100001F03AFEA24840780246052101900120B1
:1044200001F032FE9A480078F0BBAFF2046201213D
:10443000022001F055FCAFF20C620321022001F0D2
:104440004FFCAFF218620521022001F049FC012067
:104450008F49087000201D21102300E0F8E01A4663
:10446000CDE90010302101F013FD00201E211023A2
:104470001A46CDE900103021184601F009FD002050
:104480001F2110231A46CDE900103021602001F0D1
:10449000FFFC0020202110231A46CDE90010302116
:1044A000702001F0F5FC00E009E000202821102335
:1044B0004022CDE900103021202001F0E9FC7448B1
:1044C000007801283DD17148001D0068D8B914203A
:1044D000FCF707FD6D48001D0068A0B900BF6B48E0
:1044E000001D00680028FAD06D48C078401C6C4957
:1044F000C8700846C078019003F07AFB992802DD65
:1045000000206749C87061480068D0B91420FCF7E2
:10451000E8FC5E480068A0B900BF5C48006800285D
:10452000FBD05F48C078019003F062FB20B999206E
:10453000FCF735FA5A49C8705948C078401E5849A6
:10454000C8705348007802283DD15048001D0068CB
:10455000D8B91420FCF7C5FC4C48001D0068A0B970
:1045600000BF4A48001D00680028FAD04C488078F7
:10457000401C4B49887008468078019003F038FB56
:10458000122802DD01204649887040480068D0B9F1
:104590001420FCF7A6FC3D480068A0B900BF3B48CA
:1045A00000680028FBD03E488078401E3C49887057
:1045B00008468078019003F01BFB20B91220FCF71D
:1045C000EEF9374988703248007803283DD12F48EA
:1045D000001D0068D8B91420FCF783FC2B48001D8F
:1045E0000068A0B900BF2948001D00680028FAD063
:1045F0002B484078401C2A49487008464078019072
:1046000003F0F6FA312802DD0120254948701F48E1
:104610000068D0B91420FCF764FC1C480068A0B9FD
:1046200000BF1A4800680028FBD01D484078401E93
:104630001B49487008464078019003F0D9FA20B928
:104640003120FCF7ACF91649487002201149087076
:104650001448007801284BD10020292110231A4644
:10466000CDE900100146702001F012FC00202A2143
:1046700010231A46CDE900103021702001F008FC0B
:1046800000202D2110230FE02402002004012142EC
:104690004402002046020020420200204302002083
:1046A00027020020470200201A46CDE900102021F1
:1046B00001F0EEFB00202F2110231A46CDE9001057
:1046C0002021084601F0E4FB00202F2110231A4688
:1046D000CDE900102021402001F0DAFB00202C2140
:1046E00020231022CDE900101146702001F0D0FBEC
:1046F000FE48007802283AD10020292110231A46CA
:10470000CDE900100146702001F0C2FB00202A21F3
:1047100010231A46CDE900103021702001F0B8FBBB
:1047200000202F2110231A46CDE90010202101F08E
:10473000AFFB00202D2110231A46CDE900102021C7
:10474000084601F0A5FB00202F2110231A46CDE9D1
:1047500000102021402001F09BFB00202C21202371
:104760001022CDE900101146702001F091FBDF48C6
:10477000007803283AD10020292110231A46CDE9D8
:1047800000100146702001F083FB00202A21102335
:104790001A46CDE900103021702001F079FB00208D
:1047A0002F2110231A46CDE90010202101F070FBC3
:1047B00000202F2110231A46CDE9001020210846A1
:1047C00001F066FB00202D2110231A46CDE90010D0
:1047D0002021402001F05CFB00202C21202310220E
:1047E000CDE900101146702001F052FBBF4800785F
:1047F00004283AD10020292110231A46CDE90010BF
:104800000146702001F044FB00202A2110231A46A3
:10481000CDE900103021702001F03AFB00202E215C
:1048200010231A46CDE90010202101F031FB0020B1
:104830002F2110231A46CDE900102021084601F04F
:1048400027FB00202F2110231A46CDE9001020213C
:10485000402001F01DFB00202C2120231022CDE957
:1048600000101146702001F013FBA04800780528C5
:104870003AD10020292110231A46CDE90010014623
:10488000702001F005FB00202A2110231A46CDE9F3
:1048900000103021702001F0FBFA00202F2110239E
:1048A0001A46CDE90010202101F0F2FA00202E2155
:1048B00010231A46CDE900102021084601F0E8FA3D
:1048C00000202F2110231A46CDE90010202140207E
:1048D00001F0DEFA00202C2120231022CDE9001067
:1048E0001146702001F0D4FA8048007806283AD1A9
:1048F0000020292110231A46CDE90010014670201E
:1049000001F0C6FA00202A2110231A46CDE9001032
:104910003021702001F0BCFA00202F2110231A460C
:10492000CDE90010202101F0B3FA00202F2110233F
:104930001A46CDE900102021084601F0A9FA00200E
:104940002E2110231A46CDE900102021402001F02D
:104950009FFA00202C2120231022CDE900101146BF
:10496000702001F095FA61480078072872D1002084
:104970002F2110231A46CDE90010202101F088FADA
:1049800000202F2110231A46CDE9001020210846CF
:1049900001F07EFA00202F2110231A46CDE90010E5
:1049A0002021402001F074FA00202B212023102226
:1049B000CDE900101146702001F06AFA4C480068F9
:1049C00008BB1420FCF78DFA49480068D8B900BF2D
:1049D000474800680028FBD00120292110231A46EF
:1049E000CDE900100021702001F052FA00202A21A8
:1049F00010231A46CDE900103021702001F048FA4A
:104A000001203C4908703A48001F006810BB142080
:104A1000FCF767FA3648001F0068D8B900BF344871
:104A200000680028FBD00020292110231A46CDE978
:104A300000100146702001F02BFA01202A211023DA
:104A40001A46CDE900103021702001F021FA002033
:104A5000284908702848007803287DD12748007825
:104A60000228FAD100200F2110231A46CDE90010A8
:104A70000146202001F00CFA002010210B460A46C6
:104A8000CDE900100146302001F002FA002011218A
:104A900010231A46CDE900100146402001F0F8F934
:104AA0000020122110231A46CDE9001001465020A3
:104AB00001F0EEF90020212110231A46CDE9001063
:104AC0001946184601F0E4F90020222110231A4665
:104AD000CDE900101946302001F0DAF90020232139
:104AE00010231A46CDE90010194609E047020020BC
:104AF0000801214248020020420200204302002017
:104B0000502001F0C5F90020242110231A46CDE9D8
:104B100000103021184601F0BBF900202521102398
:104B20001A46CDE900103021084601F0B1F9002005
:104B3000262110231A46CDE900103021502001F023
:104B4000A7F9FE484079024600210190012001F0BA
:104B50009BFAFA48007900E0B0E102460221019098
:104B6000012001F091FAF548C07802460421019035
:104B7000012001F089FAF148807802460021019075
:104B8000032001F081FAED484078024602210190AD
:104B9000032001F079FAE9480078024604210190E7
:104BA000032001F071FAE648007898BB0020292123
:104BB00010231A46CDE900100146702001F068F973
:104BC00000202A2110231A46CDE900103021702040
:104BD00001F05EF900202D2110231A46CDE90010C6
:104BE000202101F055F900202F2110231A46CDE98C
:104BF00000102021084601F04BF900202F2110233E
:104C00001A46CDE900102021402001F041F9012091
:104C1000CB490870CA480078012834D1C9480068D7
:104C2000A8B91420FCF75DF9C648006878B900BF40
:104C3000C44800680028FBD0C0484079401CBF49E8
:104C4000487108464079632801DD00204871BD485D
:104C5000001F0068B8B91420FCF743F9B948001FD9
:104C6000006880B900BFB748001F00680028FAD06C
:104C7000B248407910B96320B0494871AF484079D3
:104C8000401EAE494871AE480078022833D1AD4885
:104C90000068A8B91420FCF724F9AA48006878B97C
:104CA00000BFA84800680028FBD0A4480079401C39
:104CB000A2490871084600790C2801DD012008711D
:104CC000A048001F0068B0B91420FCF70AF99D48FD
:104CD000001F006878B900BF9A48001F00680028CC
:104CE000FAD096480079401E944908710846007928
:104CF00008B90C20087192480078032833D19148F4
:104D00000068A8B91420FCF7ECF88E48006878B960
:104D100000BF8C4800680028FBD08848C078401C41
:104D20008649C8700846C0781F2801DD0120C87078
:104D30008448001F0068B0B91420FCF7D2F88148FD
:104D4000001F006878B900BF7E48001F0068002877
:104D5000FAD07A48C078401E7849C8700846C078B2
:104D600008B91F20C87076480078042834D17548E7
:104D70000068A8B91420FCF7B4F87248006878B944
:104D800000BF704800680028FBD06C488078401C49
:104D90006A49887008468078172801DD00208870ED
:104DA0006848001F0068B8B91420FCF79AF86548F5
:104DB000001F006880B900BF6248001F006800281B
:104DC000FAD05E48807810B918205C4988705B483A
:104DD0008078401E5949887059480078052834D198
:104DE00058480068A8B91420FCF77BF855480068BB
:104DF00078B900BF534800680028FBD04F4840787E
:104E0000401C4E494870084640783B2801DD002090
:104E100048704C48001F0068B8B91420FCF761F8CE
:104E20004848001F006880B900BF4648001F00685E
:104E30000028FAD04148407810B93C203F494870DA
:104E40003E484078401E3D4948703D48007806285D
:104E500034D13C480068A8B91420FCF742F839481E
:104E6000006878B900BF374800680028FBD0334895
:104E70000078401C31490870084600783B2801DD65
:104E8000002008702F48001F0068B8B91420FCF7F4
:104E900028F82C48001F006880B900BF2948001F6F
:104EA00000680028FAD02548007810B93C20234932
:104EB000087022480078401E204908702248007877
:104EC000042839D121480078032835D120480078BA
:104ED00090BB2048007880BB0120342110231A4663
:104EE000CDE900101946202000F0D2FF012030212A
:104EF00010231A46CDE900101946302000F0C8FFF3
:104F00000120322110231A46CDE900101946402015
:104F100000F0BEFF0120332110231A46CDE9001016
:104F20001946502000F0B4FF0020342110231A4607
:104F3000CDE9001020210FE062E057E034020020AC
:104F400047020020080121424202002043020020C3
:104F50004B02002049020020084600F099FF002083
:104F6000312110231A46CDE900102021302000F015
:104F70008FFF0020322110231A46CDE90010202196
:104F8000402000F085FF0020332110231A46CDE990
:104F900000102021502000F07BFF00202921102349
:104FA0001A46CDE90010194600F072FF00202A21B0
:104FB00010231A46CDE900101946702000F068FF52
:104FC0000020292110231A46CDE90010202100F0ED
:104FD0005FFF00202A2110231A46CDE9001020216E
:104FE000702000F055FF0120FE49087000202821A4
:104FF00010234022CDE900103021202000F048FF8E
:10500000F8480078012841D1F7480078F0BB01202A
:10501000342110231A46CDE900101946202000F053
:1050200037FF0120302110231A46CDE90010194620
:10503000302000F02DFF0120322110231A46CDE947
:1050400000101946402000F023FF012033211023D7
:105050001A46CDE900101946502000F019FF002033
:10506000342110231A46CDE900102021084600F013
:105070000FFF0020312110231A46CDE90010202116
:10508000302000F005FF0020322100E095E01023E1
:105090001A46CDE900102021402000F0F9FE002042
:1050A000332110231A46CDE900102021502000F0B2
:1050B000EFFE0020292110231A46CDE900102021FF
:1050C00000F0E6FE00202A2110231A46CDE9001048
:1050D0002021702000F0DCFEC4480068A0BB142032
:1050E000FBF7FFFEC148006870BB00BFBF48006807
:1050F0000028FBD00120292110231A46CDE90010F9
:105100001946002000F0C4FE00202A2110231A4670
:10511000CDE900101946702000F0BAFE00202921C8
:1051200010231A46CDE90010202100F0B1FE002026
:105130002A2110231A46CDE900102021702000F00A
:10514000A7FE0120AA490870A848001F0068A0BB5C
:105150001420FBF7C6FEA548001F006868BB00BF0F
:10516000A24800680028FBD00020292110231A46FD
:10517000CDE90010194600F08BFE01202A211023F2
:105180001A46CDE900101946702000F081FE00207B
:10519000292110231A46CDE90010202100F078FEC5
:1051A00000202A2110231A46CDE90010202170206A
:1051B00000F06EFE00208E4908708A4800780228B0
:1051C00040D189480078E8BB0020342110231A46DA
:1051D000CDE900101946202000F05AFE00203021B1
:1051E00010231A46CDE900101946302000F050FE79
:1051F0000020322110231A46CDE900101946402024
:1052000000F046FE0020332110231A46CDE900109D
:105210001946502000F03CFE0120342110231A468C
:10522000CDE900102021084600F032FE0120312196
:1052300010231A46CDE900102021302000F028FE6E
:10524000012000E096E0322110231A46CDE900103B
:105250002021402000F01CFE0120332110231A469B
:10526000CDE900102021502000F012FE002029215D
:1052700010231A46CDE90010194600F009FE00205F
:105280002A2110231A46CDE900101946702000F09B
:10529000FFFD56480068A0BB1420FBF722FE5348D0
:1052A000006870BB00BF514800680028FBD0002098
:1052B000292110231A46CDE90010194600F0E8FD17
:1052C00000202A2110231A46CDE90010194670202B
:1052D00000F0DEFD0120292110231A46CDE900103F
:1052E0002021002000F0D4FD00202A2110231A469E
:1052F000CDE900102021702000F0CAFD02203C49B9
:1053000008703A48001F0068A0BB1420FBF7E9FDB5
:105310003648001F006868BB00BF3448006800289A
:10532000FBD00020292110231A46CDE90010194690
:1053300000F0AEFD00202A2110231A46CDE900100E
:105340001946702000F0A4FD0020292110231A46E0
:10535000CDE90010202100F09BFD01202A2110231F
:105360001A46CDE900102021702000F091FD0020A8
:105370001F4908701F48007820B91F48007808B9F5
:10538000FBF71EFB1B480078012841D11A48007822
:10539000F0BB1AA20021084600F0A2FC17A20721C8
:1053A000002000F09DFC15A20021032000F098FCD5
:1053B00012A20721032000F093FC11A2002101207A
:1053C00000F08EFC0FA20021022000F089FC0EA24A
:1053D0000721012000F084FC0CA20721022000F02C
:1053E0007FFC16E0490200204B0200200801214208
:1053F0004A0200204202002043020020A1F10000E6
:10540000B9A60000C4DC0000C9E80000D6C3000053
:105410009FE00120072110231A46CDE9001000214A
:10542000202000F035FD0120082110231A46CDE987
:1054300000100021302000F02BFD01200921102355
:105440001A46CDE900100021402000F021FD012086
:105450000A2110231A46CDE900100021502000F047
:1054600017FD00200B2110231A46CDE90010194624
:10547000202000F00DFD00200C2110231A46CDE95C
:1054800000101946302000F003FD00200D211023EC
:105490001A46CDE900101946402000F0F9FC002022
:1054A0000E2110231A46CDE900101946502000F0B5
:1054B000EFFC00200F2110231A46CDE90010202117
:1054C000084600F0E5FC002010210B460A46CDE915
:1054D00000102021302000F0DBFC002011211023DF
:1054E0001A46CDE900102021402000F0D1FC002018
:1054F000122110231A46CDE900102021502000F07F
:10550000C7FC0020132110231A46CDE900103021DA
:10551000202000F0BDFC0020142110231A46CDE904
:1055200000103021084600F0B3FC002015211023A4
:105530001A46CDE900103021402000F0A9FC0020DF
:10554000162110231A46CDE900103021502000F01A
:105550009FFCFC480078022840D1FB480078E8BB5B
:10556000AFF268120021084600F0BAFBAFF27412E5
:105570000721002000F0B4FBAFF2801200210320CD
:1055800000F0AEFBAFF28C120721032000F0A8FB65
:10559000AFF294120021012000F0A2FBAFF29C12A6
:1055A0000021022000F09CFBAFF2A4120721012091
:1055B00000F096FBAFF2AC120721022000F090FB46
:1055C0000020072110231A46CDE9001001462020B3
:1055D00000F05EFC00200821102300E092E01A4653
:1055E000CDE900100146302000F052FC00200921D6
:1055F00010231A46CDE900100146402000F048FC77
:1056000000200A2110231A46CDE90010014650203F
:1056100000F03EFC01200B2110231A46CDE90010BA
:105620001946202000F034FC01200C2110231A46DA
:10563000CDE900101946302000F02AFC01200D2190
:1056400010231A46CDE900101946402000F020FC36
:1056500001200E2110231A46CDE9001019465020D2
:1056600000F016FC00200F2110231A46CDE900108F
:105670002021084600F00CFC002010210B460A46B1
:10568000CDE900102021302000F002FC0020112183
:1056900010231A46CDE900102021402000F0F8FB2D
:1056A0000020122110231A46CDE90010202150209D
:1056B00000F0EEFB0020132110231A46CDE9001064
:1056C0003021202000F0E4FB0020142110231A4692
:1056D000CDE900103021084600F0DAFB002015214A
:1056E00010231A46CDE900103021402000F0D0FBF5
:1056F0000020162110231A46CDE900103021502039
:1057000000F0C6FB8F480078032841D18E4800780E
:10571000F0BBAFF218320021084600F0E1FAAFF218
:1057200024320721002000F0DBFAAFF230320021F2
:10573000032000F0D5FAAFF23C320721032000F03D
:10574000CFFAAFF244320021012000F0C9FAAFF2E3
:105750004C320021022000F0C3FAAFF2543207218C
:10576000012000F0BDFAAFF25C320721022000F008
:10577000B7FA0020072110231A46CDE90010014690
:10578000202000F085FB0020082110231A4600E0AD
:1057900091E0CDE900100146302000F079FB0020B7
:1057A000092110231A46CDE900100146402000F0DF
:1057B0006FFB00200A2110231A46CDE90010014694
:1057C000502000F065FB00200B2110231A46CDE984
:1057D00000101946202000F05BFB00200C21102354
:1057E0001A46CDE900101946302000F051FB002088
:1057F0000D2110231A46CDE900101946402000F073
:1058000047FB00200E2110231A46CDE9001019464F
:10581000502000F03DFB01200F2110231A46CDE956
:1058200000102021084600F033FB012010210B4618
:105830000A46CDE900102021302000F029FB01208C
:10584000112110231A46CDE900102021402000F03C
:105850001FFB0120122110231A46CDE90010202140
:10586000502000F015FB0020132110231A46CDE92B
:1058700000103021202000F00BFB00201421102309
:105880001A46CDE900103021084600F001FB002047
:10589000152110231A46CDE900103021402000F0D8
:1058A000F7FA0020162110231A46CDE90010302106
:1058B000502000F0EDFA23480078042840D1224817
:1058C0000078E8BBAFF2CC420021084600F008FAAD
:1058D000AFF2D8420721002000F002FAAFF2E44212
:1058E0000021032000F0FCF9AFF2F0420721032071
:1058F00000F0F6F9AFF2F8420021012000F0F0F9D3
:10590000AFF200520021022000F0EAF9AFF2085293
:105910000721012000F0E4F9AFF210520721022024
:1059200000F0DEF90020072110231A46CDE900100F
:105930000146202000F0ACFA00200821102305E0E9
:1059400097E0000042020020430200201A46CDE901
:1059500000100146302000F09BFA0020092110239E
:105960001A46CDE900100146402000F091FA0020CF
:105970000A2110231A46CDE900100146502000F0FC
:1059800087FA00200B2110231A46CDE90010194692
:10599000202000F07DFA00200C2110231A46CDE9CA
:1059A00000101946302000F073FA00200D2110235A
:1059B0001A46CDE900101946402000F069FA00208F
:1059C0000E2110231A46CDE900101946502000F090
:1059D0005FFA00200F2110231A46CDE90010202184
:1059E000084600F055FA002010210B460A46CDE982
:1059F00000102021302000F04BFA0020112110234C
:105A00001A46CDE900102021402000F041FA002084
:105A1000122110231A46CDE900102021502000F059
:105A200037FA0120132110231A46CDE90010302146
:105A3000202000F02DFA0120142110231A46CDE970
:105A400000103021084600F023FA01201521102310
:105A50001A46CDE900103021402000F019FA01204B
:105A6000162110231A46CDE900103021502000F0F5
:105A70000FFA1CBD10B5012000F048FB0620FBF713
:105A800030FA10BD7FB505460E4614460A2C05DADD
:105A9000224608A1684602F0B9F804E0224608A1AF
:105AA000684602F0B3F86A463146284600F018F915
:105AB0007FBD000020483A2B302564A3A5000000DC
:105AC00020483A2B2564A3A5000000002DE9F041F1
:105AD00086B006460F4690461D460C9C0A2D09DAF4
