:020000040800F2
:10000000C811002045010008ED320008F72400085F
:10001000E932000895090008D156000800000000E8
:10002000000000000000000000000000013B00088C
:10003000750A000800000000F9330008C93C0008F8
:100040005F0100085F0100085F0100080536000835
:100050005F0100085F010008E91300085F01000864
:100060005F0100085F010008B11400085F0100088B
:100070005F0100085F0100085F0100085F010008E0
:100080005F0100085F0100085F0100085F010008D0
:100090005F0100085F0100085F0100085F010008C0
:1000A0005F0100085F0100085F0100085F010008B0
:1000B0003D3E00085F0100085F0100085F01000885
:1000C0005F0100085F0100085F0100085F01000890
:1000D0005F0100085F0100085F0100085F01000880
:1000E000491400085F0100085F0100085F01000873
:1000F0005F0100085F0100085F0100085F01000860
:100100005F0100085F0100085F0100085F0100084F
:100110005F0100085F010008213F0008ED40000872
:100120005F0100085F0100085F0100085F0100082F
:10013000DFF80CD000F0A2FB0048004789860008D9
:10014000C81100200648804706480047FEE7FEE742
:10015000FEE7FEE7FEE7FEE7FEE7FEE7FEE7FEE777
:10016000FD3C000831010008D2B201E000F8012B8B
:10017000491EFBD270470022F6E710B513460A4627
:1001800004461946FFF7F0FF204610BD421C10F848
:10019000011B0029FBD1801A7047F0B480EA0102EC
:1001A000D40F4200B2EB410F02D20246084611467C
:1001B0004A0042D0C30DDDB2C1F3C752AD1A202DA3
:1001C00035DAC1F3160141F4000204B15242C5F11F
:1001D000200602FA06F12A411044B3EBD05F23D087
:1001E000C4B1012DA0EBC35009DCF0BC4FF00042BC
:1001F00002EAC352DBB200F5000000F09FBA4000F3
:1002000000F1807000EBC350A0F1807040EAD17023
:10021000490009E0490841EAC071A0EBC35000F56C
:100220000000400800EBC350F0BC00F07EBA614211
:10023000012202EB4101001BF6E7F0BC704781F0A0
:100240000041AAE780F00040A7E730B480EA01024D
:1002500002F0004530F0004221F0004013D090B190
:10026000C30DD40DC2F31601C0F31600E41A41F415
:10027000000140F400027D34914201D3641C00E08F
:100280004900002C02DA30BC002070474FF4000017
:100290000023914201D3891A034340084FEA4101E8
:1002A000F7D151B1914202D14FF0004105E002D2A5
:1002B0004FF0010101E06FF0010103EBC45028444D
:1002C00030BC00F032BA2DE9FE4F804681EA0300CF
:1002D000C00F0C46009021F0004123F00045B8EB20
:1002E0000200A94105D24046214690461C460B46D5
:1002F000024623F00040104347D0270DC7F30A0001
:10030000C3F30A510290401A019040286BDAC3F3FC
:10031000130040F4801B0098924620B10023D2EBDA
:10032000030A63EB0B0B01985946C0F1400250469B
:1003300000F0CAF906460D4650465946019A00F0AB
:10034000E2F910EB08006141002487EA115284EAC7
:10035000E7731A4340D0009A62B3019A012A4FEA28
:10036000075215DC001B61EB02014FF0004202EA6C
:100370000752CDE90042001C41F5801132462B4660
:1003800000F017FA03B0BDE8F08F40462146F9E7C8
:10039000001B61EB0201001C41F5801300185B415A
:1003A0002018A2F5001747EB030140EAD570B619F3
:1003B0006D4111E06D084FEA360645EAC0754FEA17
:1003C0000752001B61EB0201001C41F58011490836
:1003D0004FEA30000019514132462B4603B0BDE8C8
:1003E000F04F00F0D9B90098012240000023D0EB73
:1003F000020263EBE073009821464FEAE074B8EB29
:10040000000061EB0401E9E783F000435BE781F062
:10041000004158E72DE9FE4F81EA030404F000444F
:1004200021F0004100944FF0000B23F0004350EA0C
:1004300001045ED052EA03045BD0C3F30A54C1F353
:100440000A552C44A4F2F3340194A0FB0254C1F3E6
:10045000130141F48011C3F3130343F4801301FB30
:10046000024400FB034E840A970A44EA815447EA97
:100470008357A4FB076802958D0A05FB07854FEAA1
:10048000932C04FB0C542705029D4FEA065847EABB
:100490001637B5EB08056EEB070C870E920E47EA90
:1004A000811742EA8312A7FB0201B6EB0B0164EB52
:1004B00000042B0D43EA0C335E1844EB1C50DA4663
:1004C0005146E7FB0201C5F313044FEA0B3343EA3D
:1004D00014534FEA0432019C43EA0603A4F10C04CE
:1004E0000294009CCDE900B400F063F903B0BDE8CC
:1004F000F08F00200146F9E72DE9F04D81EA030471
:1005000004F0004B21F0004514464FF0000A23F0A0
:10051000004150EA050220D054EA01021DD0C5F383
:100520000A570246C5F31303C1F31300C1F30A5679
:1005300040F4801543F48013A7EB0608101BD64641
:1005400008F2FD3873EB050002D308F1010801E061
:1005500092185B41B8F1000F03DA00200146BDE8B4
:10056000F08D00204FF48011064684460EE0171BE4
:1005700073EB050705D3121B63EB050306434CEA37
:10058000010C49084FEA300092185B4150EA01071C
:10059000EDD152EA030012D082EA040083EA050199
:1005A000084305D0101BAB4106D20122002306E010
:1005B00000224FF0004302E06FF0010253101AEBEB
:1005C00006004CEB085110EB0A0041EB0B01BDE8B3
:1005D000F04D00F0E1B896230022114600F0AEB8CD
:1005E0000EB5C10F80EAE0700844CA07002140F24E
:1005F00033438DE80E000A460B4600F0DAF803B0EC
:1006000000BD0EB540F2334102910021CDE9001149
:100610000A460B4600F0CDF803B000BDC1F30A5204
:1006200010B5C1F3130140F2FF3341F480119A4237
:1006300001DA002010BD40F233439A42A2F2334265
:1006400003DC524200F04FF810BD904010BD00F0A6
:10065000004230F000400AD0C10D01F56071C0F3D6
:10066000160042EA0151C2084007114370470020BA
:100670000146704730B5002904DB4FF0004440428A
:1006800064EB0101002B04DB4FF00044524264EBA9
:1006900003038B4208BF824230BD000030B50B46D9
:1006A000014600202022012409E021FA02F59D42A2
:1006B00005D303FA02F5491B04FA02F52844151E76
:1006C000A2F10102F1DC30BD202A04DB203A00FA5D
:1006D00002F1002070479140C2F1200320FA03F399
:1006E000194390407047202A04DB203A21FA02F097
:1006F0000021704721FA02F3D040C2F1200291405C
:10070000084319467047202A06DBCB17203A41FAE6
:1007100002F043EAE07306E041FA02F3D040C2F18E
:10072000200291400843194670470029A8BF70472E
:10073000401C490008BF20F00100704710B4B0FA17
:1007400080FC00FA0CF050EA010404BF10BC7047B2
:1007500049B1CCF1200421FA04F411FA0CF118BFCC
:10076000012121430843A3EB0C01CB1D4FEA00619B
:100770004FEA102042BF002010BC704700EBC3506E
:1007800010440029A4BF10BC7047401C490008BF9A
:1007900020F0010010BC704710B5002B08DA401C97
:1007A00041F1000192185B411A4301D120F0010090
:1007B00010BD2DE9F04D92469B4611B1B1FA81F280
:1007C00002E0B0FA80F220329046FFF77DFF044647
:1007D0000F4640EA0A0041EA0B0153465A460843D5
:1007E00013D0114653EA010019D0C8F14002504617
:1007F000FFF779FF05460E46504659464246FFF739
:1008000063FF084305D0012004E020463946BDE8D7
:10081000F08D0020054346EAE0762C4337430A98E2
:100820006305E40AA0EB08000022FD0A44EA4754ED
:100830000A3002D500200146E9E701051019694197
:10084000DDE9084500196941BDE8F04DA4E770B540
:1008500021F0004303430CD0C1F30A550024D5EB2B
:10086000040564EB0403D617AD1AB34102DB002084
:10087000014670BD201841EB025170BD064C074D7A
:1008800006E0E06840F0010394E807009847103460
:10089000AC42F6D3FFF750FCD0E40008F0E40008C7
:1008A00070B5C1F30A5201F000450024C1F31301F1
:1008B00040F2FF3341F480119A4201DA002070BD0A
:1008C00040F233439A42A2F2334203DC5242FFF732
:1008D0000AFF00E090402C43F1D0404270BD70B55B
:1008E0008C1810F8015B15F0070301D110F8013BDB
:1008F0002A1106D110F8012B03E010F8016B01F862
:10090000016B5B1EF9D12B0705D40023521E0DD4B9
:1009100001F8013BFAE710F8013BCB1A921C03E007
:1009200013F8015B01F8015B521EF9D5A142D8D33F
:10093000002070BD10B5012002F0B0FD002002F0D3
:10094000ADFD10BD08B50121042002F087FD4FF474
:100950008070ADF8000010208DF8030003208DF8A2
:1009600002006946044800F09DFF4FF48071024880
:1009700001F02CF808BD00000008014010B5FFF799
:10098000E1FF4FF48071024801F020F810BD000033
:100990000008014000BFFEE72DE9F04107460C4684
:1009A0004FF00008002500263048B7FBF0F5002D79
:1009B00033D040F2B2760DE0B0B202F03FFC30B17D
:1009C000B5F5B77F02D3A5F5B77502E005E0A5F24E
:1009D0006D15761CB5F5B67FEED800BF26800126D2
:1009E00014E0208802F02AFC30B1022E04D11D2D23
:1009F00001D31D3D09E00BE01D48805DA84203D8EE
:100A00001B48805D2D1A00E002E0761C1C2DE8D208
:100A100000BFE670681C207105E040F2B2702080D3
:100A20000120E07020711148B7FBF0F100FB117854
:100A30004FF46160B8FBF0F060714FF46160B8FB97
:100A4000F0F100FB11803C21B0FBF1F0A0713C20E3
:100A5000B8FBF0F100FB1180E0712279E178208889
:100A600001F00AFDA070BDE8F08100008051010096
:100A7000318B0008704700BF411E0800FCD1704751
:100A80000FB5A1B0222014901420139004201190CF
:100A90003120109007200A902298C0B2059021982A
:100AA00080B201220490059901F0E6FC0D90F7490F
:100AB0002298085C0E902298022809D1219880B2D1
:100AC000059002F0BBFB012802D10E98401C0E904D
:100AD000EFA117A8DDE9212305F06AFB4FF6FF70AF
:100AE00000901098143880B2002317AA0146059090
:100AF000502001F00AFF4FF6FF7000901098143854
:100B000080B20023E6A201460590282001F0FDFEF8
:100B10004FF6FF7000901098143880B20023E1A2C5
:100B200001460590B42001F0F0FE0020169005204B
:100B300012900020159043E0159810B115980628E2
:100B40001ED14FF47840D8490090159801EB8000F1
:100B50000590139A1699109801FB02011198084408
:100B600080B20490DDE91421129801FB020080B2EA
:100B70004FF6FF730390DDE9041201F04BFE1CE019
:100B80000020C9490090159801EB80000590139A48
:100B90001699109801FB02011198084480B2049044
:100BA000DDE91421129801FB020080B24FF6FF73B9
:100BB0000390DDE9041201F02DFE1598401C1590FC
:100BC00015980728B8D3012016900F900D9815900E
:100BD0004CE1B6A117A80F9A05F0EAFA0D20129081
:100BE0000F98C0B205902298C0B20490219880B2AC
:100BF00006AB0390DDE9041200F0F0FF159810B188
:100C00001598062832D14FF478400090139A16991F
:100C1000109801FB0201119808440A3080B2059037
:100C2000DDE91421129801FB020080B24FF6FF7338
:100C300017AA0490059901F0EDFD4FF4784000905B
:100C4000139A1699109801FB0201119808441C3060
:100C500080B20590DDE91410484380B24FF6FF736F
:100C600006AA0490059901F0A7FD2FE0002000904E
:100C7000139A1699109801FB0201119808440A3042
:100C800080B20590DDE91421129801FB020080B2C8
:100C90004FF6FF7317AA0490059901F0BBFD0020E1
:100CA0000090139A1699109801FB020111980844BC
:100CB0001C3080B20590DDE91410484380B24FF635
:100CC000FF7306AA0490059901F076FD23990F9809
:100CD00088421CD100201F21CDE90010139810304C
:100CE00080B205901498801E80B20490139A1699D1
:100CF000109801FB02000E3080B20390DDE9141061
:100D0000484380B2029003A90EC901F068FF2499FC
:100D10000F9888424ED101204FF47841CDE9001060
:100D20001398103080B205901498801E80B2049001
:100D3000139A1699109801FB02000E3080B20390AE
:100D4000DDE91410484380B2029003A90EC901F0F6
:100D500046FF00200090139A1699109801FB02019B
:100D6000119808440A3080B20590DDE914211298E8
:100D700001FB020080B24FF4784317AA0490059952
:100D800001F048FD00200090139A1699109801FB7D
:100D90000201119808441C3080B20590DDE914105E
:100DA000484380B24FF4784306AA0490059901F0B5
:100DB00003FD52E03E490F98096888424DD1012059
:100DC0004FF6FF71CDE900101398103080B20590F6
:100DD0001498801E80B20490139A1699109801FB03
:100DE00002000E3080B20390DDE91410484380B257
:100DF000029003A90EC901F0F2FE00200090139AA0
:100E00001699109801FB0201119808440A3080B22B
:100E10000590DDE91421129801FB020080B24FF623
:100E2000FF7317AA0490059901F0F4FC00200090CC
:100E3000139A1699109801FB0201119808441C306E
:100E400080B20590DDE91410484380B24FF6FF737D
:100E500006AA0490059901F0AFFC0F981C300B9086
:100E60000F98401C0F901598401C15901598072856
:100E7000FFF4AFAE1E200C900E990B98884201D95A
:100E800006200A9002201690ECE10000318B000849
:100E900025303464C4EA25303264D4C20000000036
:100EA0003C0000003E000000008B000825640000AC
:100EB0003800002000201590C4E10F98C0B20590C2
:100EC0002298C0B20490219880B206AB0390DDE96D
:100ED000041200F083FEAFF22C0117A80F9A05F060
:100EE00067F90F980A2802D20D20129001E009201C
:100EF0001290159810B11598062835D14FF4784006
:100F00000090139A1699109801FB02011198014460
:100F10000C98084480B20590DDE91421129801FB79
:100F2000020080B24FF6FF7317AA0490059901F0F2
:100F300071FC4FF478400090139A1699109801FBB9
:100F40000201119801440C980844123080B20590B7
:100F5000DDE91410484380B24FF6FF7306AA0490EF
:100F6000059901F029FC32E000200090139A1699AF
:100F7000109801FB0201119801440C98084480B2BA
:100F80000590DDE91421129801FB020080B24FF6B2
:100F9000FF7317AA0490059901F03CFC0020009013
:100FA000139A1699109801FB0201119801440C98AC
:100FB0000844123080B20590DDE91410484380B235
:100FC0004FF6FF7306AA0490059901F0F5FB2499EA
:100FD0000F98884255D101204FF47841CDE9001097
:100FE0001398103080B205901498801E80B204903F
:100FF000139A1699109801FB0200801C0C99084462
:1010000080B20390DDE91410484380B2029003A936
:101010000EC901F0E4FD4FF6FF700090139A169987
:10102000109801FB0201119801440C98084480B209
:101030000590DDE91421129801FB020080B24FF403
:10104000784317AA0490059901F0E4FB4FF6FF706E
:101050000090139A1699109801FB0201119801440F
:101060000C980844123080B20590DDE91410484312
:1010700080B24FF4784306AA0490059901F09CFBD6
:10108000B2E0D7490F9809688842F9D1159810B194
:101090001598062855D101204FF6FF71CDE90010B3
:1010A0001398103080B205901498801E80B204907E
:1010B000139A1699109801FB0200801C0C990844A1
:1010C00080B20390DDE91410484380B2029003A976
:1010D0000EC901F084FD4FF478400090139A1699E0
:1010E000109801FB0201119801440C98084480B249
:1010F0000590DDE91421129801FB020080B24FF641
:10110000FF7317AA0490059901F084FB4FF478400F
:101110000090139A1699109801FB0201119801444E
:101120000C980844123080B20590DDE91410484351
:1011300080B24FF6FF7306AA0490059901F03CFBBC
:1011400052E001204FF6FF71CDE9001013981030E6
:1011500080B205901498801E80B20490139A16995C
:10116000109801FB0200801C0C99084480B2039087
:10117000DDE91410484380B2029003A90EC901F0C2
:101180002EFD00200090139A1699109801FB020181
:10119000119801440C98084480B20590DDE91421AF
:1011A000129801FB020080B24FF6FF7317AA049059
:1011B000059901F02FFB00200090139A16991098C2
:1011C00001FB0201119801440C980844123080B2CE
:1011D0000590DDE91410484380B24FF6FF7306AA6C
:1011E0000490059901F0E8FA23990F9888421ED1DE
:1011F00000201F21CDE900101398103080B2059017
:101200001498801E80B20490139A1699109801FBCE
:101210000200801C0C99084480B20390DDE9141090
:10122000484380B2029003A90EC901F0D8FC0F9880
:10123000401C0F90DDE90E10884200D906E0159899
:10124000401C159015980728FFF437AE00BF0C9886
:1012500012300C90DDE90E10884200D907E0169894
:10126000401C16900A9916988842FFF423AE00BFDE
:101270000C9812380C901598062831D21598401CFD
:10128000159001200F9028E0AFF2E03117A80F9AD7
:1012900004F08EFF0D20129045F6DA400090139A6C
:1012A0001699109801FB0201119801440C9808440A
:1012B00080B20590DDE91421129801FB020080B292
:1012C0004FF6FF7317AA0490059901F0A3FA0F983F
:1012D000401C0F901598401C159015980728D3D3E3
:1012E0000D98E8B32298401E2290229820B92198A8
:1012F000401E21900C2022903A492298085C0E90C2
:101300002298022809D1219880B2059001F096FF19
:10131000012802D10E98401C0E90012016900E98C4
:10132000401C0D99401A0F900020159029E0AFF253
:10133000844117A80F9A04F03BFF0920129045F64C
:10134000DA400090139A1699109801FB0201119847
:1013500008440A3080B20590DDE91421129800E0BB
:1013600013E001FB020080B24FF6FF7317AA04904E
:10137000059901F04FFA0F98401C0F901598401CEA
:1013800015900D9915988842D1D3002016901EE033
:1013900045F6DA4000901698421C139812301099C6
:1013A00002FB0010001F80B205901698421C139893
:1013B000123002FB0010001F80B20490EB220146A5
:1013C0000520059B01F0B4FB1698401C16900A9965
:1013D00016988842DCD302492498086025B000BDE5
:1013E00038000020318B000808B5012000F07EF89D
:1013F00028B31348007880B90221124800F0E6FAB9
:101400001F204FF4A073F02200210090084601F045
:1014100087F801200A4908700EE00221094800F00F
:10142000D7FA00204FF4A073F0220146009001F09B
:1014300077F8002002490870012000F051F808BD3B
:1014400078000020000C014008B54FF4005000F077
:101450004DF838B31448007888B90121134800F0DA
:10146000B5FA4FF4FC604FF4A073F0220021009015
:10147000084601F055F801200B4908700EE00121E3
:101480000A4800F0A5FA00204FF4A073F0220146AC
:10149000009001F045F80020034908704FF4005017
:1014A00000F01EF808BD000079000020000C01408B
:1014B00010B5102000F01AF860B11021064800F0B5
:1014C0007CFA08B9012000E00020044908701020CF
:1014D00000F006F810BD0000001801407000002068
:1014E00001490860704700001404014001460020D3
:1014F0000022074B1B6803EA0102054B14331B68EB
:101500000B4013B10AB1012000E000207047000039
:1015100000040140002123498279002A3AD00A467A
:10152000126803689A430B461A600A1D1268036822
:101530009A430B1D1A60027911440A6803681A4322
:101540000A60184A0832126803689A43154B083338
:101550001A601A1D126803689A43124B0C331A6002
:101560004279102A0ED11A1F126803681A430D4BD4
:1015700008331A601A1D126803681A43094B0C33AA
:101580001A600DE00749427911440A6803681A435A
:101590000A6005E0027911440A6803689A430A6008
:1015A000704700000004014000B587B000BF00BFD5
:1015B0000121152001F052FF0121080301F04EFF27
:1015C0002020ADF8040003208DF8060018208DF8C7
:1015D000070001A9264800F065F94020ADF8040095
:1015E00001A9234800F05EF98020ADF8040001A9AC
:1015F0001F4800F057F90120ADF8040010208DF8C5
:10160000070001A91B4800F04DF90121194800F01D
:10161000DFF90020ADF808004FF48270ADF80A0041
:101620000020ADF80C000220ADF80E000120ADF84E
:1016300010004002ADF812000820ADF814000020A0
:10164000ADF816000720ADF8180002A90A4802F00C
:101650001FFA0121084802F03AF802F04DF9074953
:10166000884202D1002007B000BD0120FBE7000046
:101670000008014000100140003001401740EF0019
:1016800051B18200A2F1C042126842F0010382000F
:10169000A2F1C042136009E08200A2F1C0421268C8
:1016A000034B1A408300A3F1C0431A607047000047
:1016B000FEFF0F00D0E901121143C2681143026915
:1016C00011434269114382691143C2691143026A9D
:1016D0001143426A1143826A1143C26A1143026B89
:1016E000114302689200A2F1C0421160816808298A
:1016F0000BD101688900A1F1C041096841F04002A5
:1017000001688900A1F1C0410A60416B0968426B20
:10171000526841EA0211426B926841EA0221426B2F
:10172000928941EA0241426B128A41EA0251426BBC
:10173000127D41EA0261426B926911430268521CB8
:101740009200A2F1C0421160C16AB1F5804F1BD175
:10175000816B0968826B526841EA0211826B926860
:1017600041EA0221826B128A41EA0251826B127DA8
:1017700041EA0261826B9269114302689200A2F110
:10178000C042C2F8041107E06FF07042016889009E
:10179000A1F1C041C1F804217047000008B502F072
:1017A0008DF801220021684601F09EFF9DF800009F
:1017B000522805D1302201210C4801F095FF13E099
:1017C00000BF04F0B5FA0028FBD0522000900020A2
:1017D00002F0BAF801220021684601F0ADFF302284
:1017E0000121024801F0A8FF08BD000040000020D0
:1017F00008B501211C2001F031FE2320ADF80000C6
:1018000003208DF8020010208DF80300694612486D
:1018100000F048F80120ADF8000004208DF8030026
:1018200069460E4800F03EF84FF40050ADF8000055
:1018300004208DF803006946094800F033F80221BE
:10184000054800F0C5F80121034800F0C1F8202147
:10185000014800F0BDF808BD000C0140000801403F
:101860000010014030B500228B071C0F0F2303FA34
:1018700004F20B4B8C1053F824309343084C8D101A
:1018800044F8253023468C1053F824308C07240F5D
:1018900000FA04F42343024C8D1044F8253030BD87
:1018A000080001402DE9F0410246002500260020F5
:1018B00000230024002791F803C00CF00F0591F8D5
:1018C00003C00CF0100CBCF1000F03D091F802C063
:1018D0004CEA050591F800C0BCF1000F31D0146846
:1018E00000202BE04FF0010C0CFA00F3B1F800C01F
:1018F0000CEA03069E4220D183004FF00F0C0CFA35
:1019000003F7BC4305FA03FC4CEA040491F803C056
:10191000BCF1280F06D14FF0010C0CFA00FCC2F804
:1019200014C00AE091F803C0BCF1480F05D14FF094
:10193000010C0CFA00FCC2F810C0401C0828D1D3DE
:101940001460B1F800C0BCF1FF0F34DD5468002012
:101950002EE000F1080C4FF0010808FA0CF3B1F882
:1019600000C00CEA03069E4221D183004FF00F0C09
:101970000CFA03F7BC4305FA03FC4CEA040491F8A3
:1019800003C0BCF1280F05D100F1080C08FA0CF8CF
:10199000C2F8148091F803C0BCF1480F07D100F1E0
:1019A000080C4FF0010808FA0CF8C2F81080401C2F
:1019B0000828CED35460BDE8F08102460020936829
:1019C0000B400BB1012000E00020704741617047DF
:1019D000016170472DE9FF4F83B00C461F4664211B
:1019E000039890FBF1F0C0B20190039890FBF1F2E4
:1019F00001FB1200C5B20198132806D001981428E3
:101A000003D0002007B0BDE8F08F0198142806D15C
:101A100005F1630000EB40001FFA80F904E0681E46
:101A200000EB40001FFA80F9694909F10200085CE7
:101A300000F0600A4FEA6A1A09F10200085C00F03F
:101A40001F0BBAF1010F04D1ABF1010000F0FF0848
:101A500003E00BF11E0000F0FF080A2C07DA601EFD
:101A60005C49095C05980844401E86B208E0A4F170
:101A70000A00594931F8101005980844401E86B2F2
:101A8000022C08DDE91705EB91718910A5EB8101A6
:101A900009B9701C86B246453EDBA6EB080086B24B
:101AA000012401200290002000904946029800F095
:101AB000EFF810B94FF01D0A01E04FF01E0A44493B
:101AC00011F80900C11700EB11714FEA211B1DE04D
:101AD000A6EB0A0086B20298401CC0B202905C4598
:101AE00008D10098C043C0B20090009820B9601C93
:101AF000C4B201E0601CC4B24946029800F0C8F8C4
:101B000010B94FF01D0A01E04FF01E0A5645DFDA0A
:101B1000701CC0B205904FE0A8EB060000F0FF0873
:101B20001DB963251320019001E0681EC5B2A9F11B
:101B300003001FFA80F90C24254911F80900C11788
:101B400000EB11714FEA211BBBF1000F02D10C20F9
:101B5000029001E00D20029000200090494602987A
:101B600000F096F810B94FF01D0A01E04FF01E0A80
:101B70001BE0A8EB0A0000F0FF080298401EC0B26C
:101B80000290009808B9601EC4B25C4503D1009869
:101B9000C043C0B200904946029800F079F810B9ED
:101BA0004FF01D0A01E04FF01E0AD045E1DCAAEB20
:101BB0000800401CC0B20590019807F8010B07F817
:101BC000015B07F8014B0598387001201AE7000007
:101BD0003ADF000840E200084AE200082DE9F84137
:101BE00005460E4617461C466B463A463146284681
:101BF000FFF7F0FE08B9BDE8F8819DF803000A2858
:101C00000DDD9DF803000A2190FBF1F0104951F819
:101C1000208002224146204602F04AF804E00222D7
:101C20000CA1204602F044F89DF80300401E0A2152
:101C300090FBF1F201FB1200074951F820800222CB
:101C40004146A01C02F034F80020207100BFD2E70A
:101C500078010020B3F50000480100202DE9F04193
:101C600005460C462612E7B2A6F1B000C0EB001103
:101C700001EB401007EB4000A1384FEA401808F58F
:101C800080512022284601F02FFD0020BDE8F08180
:101C900002460E2A70D2DFE802F086071019222BC6
:101CA000353F49535D67727C4048405C00F0080056
:101CB00008B9002070470120FCE73C48405C00F078
:101CC000040008B90020F5E70120F3E73748405C3D
:101CD00000F0020008B90020ECE70120EAE73348F1
:101CE000405C00F0010008B90020E3E70120E1E7D3
:101CF0002E4B481C185C00F0800008B90020D9E782
:101D00000120D7E7294B481C185C00F0400008B9B7
:101D10000020CFE70120CDE7244B481C185C00F0E1
:101D2000200008B90020C5E70120C3E71F4B481C6D
:101D3000185C00F0100008B90020BBE70120B9E7EB
:101D40001A4B481C185C00F0080008B90020B1E7E5
:101D50000120AFE7154B481C185C00F0040008B9DF
:101D60000020A7E70120A5E7104B481C185C00F0F5
:101D7000020010B900209DE715E001209AE70B4B07
:101D8000481C185C00F0010008B9002092E701200F
:101D900090E7064B881C185C00F0800008B9002012
:101DA00088E7012086E7002084E700003ADF00088A
:101DB0002DE9F041F8480078002862D1F748007A10
:101DC000002810D0F548808814280DDBF34880885F
:101DD0003C2809DAF148C088002805DBEF48C088B4
:101DE000302801DA792441E3EC48808846280DDB6D
:101DF000EA488088782809DAE848C088002805DBA6
:101E0000E648C088302801DA7A242FE3E348808846
:101E100082280DDBE1488088AA2809DADF48C088DB
:101E2000002805DBDD48C088302801DA7B241DE36B
:101E3000DA488088B4280DDBD8488088DC2809DAA5
:101E4000D648C088002805DBD448C088302801DA8D
:101E50007C240BE3D148808864280FDBCF4880883E
:101E6000B0F58F7F0ADACD48C0888C2806DBCB48D6
:101E7000C088B0F5A07F01DA7D24F7E24FF6FF7449
:101E8000F4E2C548007801286FD1C448007A0028E0
:101E9000A9D0C248808814280DDBC04880883C281F
:101EA00009DABE48C088002805DBBC48C088302855
:101EB00001DA7924DAE2B948808846280DDBB74890
:101EC0008088782809DAB548C088002805DBB3483F
:101ED000C088302801DA7A24C8E2B0488088822895
:101EE0000DDBAE488088AA2809DAAC48C0880028F3
:101EF00005DBAA48C088302801DA7B24B6E2A7486F
:101F00008088B4280DDBA5488088DC2809DAA3483E
:101F1000C088002805DBA148C088302801DA7C246D
:101F2000A4E29E4880881E280DDB9C4880883C28BF
:101F300009DA9A48C088322805DB9848C0885028BA
:101F400001DA7D2492E295488088B4280EDB93481C
:101F50008088C3280ADA9148C088322806DB8F4877
:101F6000C088462802DA7E2480E214E08B4880880C
:101F7000C3280DDB89488088DC2809DA8748C088B7
:101F8000322805DB8548C088462801DA7F246DE2C7
:101F90004FF6FF746AE28048007802284ED17F48ED
:101FA000007A002886D07D48808814280DDB7B4885
:101FB00080883C2809DA7948C088002805DB774802
:101FC000C088302801DA792450E274488088462895
:101FD0000DDB72488088782809DA7048C0880028AC
:101FE00005DB6E48C088302801DA7A243EE26B486F
:101FF000808882280DDB69488088AA2809DA67482A
:10200000C088002805DB6548C088302801DA7B24B9
:102010002CE262488088B4280DDB60488088DC2888
:1020200009DA5E48C088002805DB5C48C088302893
:1020300001DA7C241AE24FF6FF7417E25648007862
:1020400003287CD15548007AA8B3544880881428C6
:102050000DDB524880883C2809DA5048C0880028A7
:1020600005DB4E48C088202801DA7924FEE14B4880
:10207000808846280DDB49488088782809DA474857
:10208000C088002805DB4548C088202801DA7A246A
:10209000ECE14248808882280EDB40488088AA28EC
:1020A0000ADA3E48C088002806DB3C48C088202861
:1020B00002DA7B24DAE151E038488088B4280DDB6D
:1020C00036488088DC2809DA3448C088002805DBD7
:1020D0003248C088202801DA7C24C7E12F48C08814
:1020E000202816DD2D48C088402812DA2B48808829
:1020F0001E2804DD29488088302800DA7D242748FE
:102100008088B42884DD25488088DC2892DA7E2403
:10211000ACE12248C0885D281DDD2048C0885D38BC
:10212000262190FBF1F0C7B21C488088222190FB49
:10213000F1F000F0FF0801221948017800E010E0FA
:102140004FF4FC6000F098F9072101FB0781081AA1
:10215000401C84B28AE14FF6FF7487E14FF6FF74AA
:1021600084E10D480078042876D10C48007A0028D4
:1021700073D00A488088002814DB084880883228F9
:1021800010DA0648C08800280CDB0448C0881428F0
:1021900008DA79246AE1000010000020B80100206C
:1021A00034000020B2488088C8280DDBB048808801
:1021B000F02809DAAE48C088002805DBAC48C088A2
:1021C000142801DA7A2451E1A948808828280DDBF7
:1021D000A7488088482809DAA548C088282805DB50
:1021E000A348C088322801DA7B243FE1A0488088D8
:1021F00068280DDB9E4880888A2809DA9C48C088B8
:10220000282805DB9A48C088322801DA7C242DE191
:102210009748808892280DDB95488088AA2809DA9B
:102220009348C088282805DB9148C088322801DA05
:102230007D241BE18E48808830280FDB8C48808805
:1022400050280BDA8A48C0883C2807DB8848C088B9
:102250005C2803DA7E2409E158E054E08448808851
:1022600060280DDB82488088802809DA8048C08891
:102270003C2805DB7E48C0885C2801DA7F24F5E035
:102280007B48808890280DDB79488088B02809DA5F
:102290007748C0883C2805DB7548C0885C2801DA8F
:1022A0008024E3E07248C088B42829DD7048808823
:1022B000502190FBF1F0C5B26D48C088B43823219D
:1022C00090FBF1F086B2002D0DDB022D0BDC002E11
:1022D00009DB022E07DC06EB46002844401CC5B291
:1022E0002846BDE8F081032E0CD10DB92A20F8E76D
:1022F000012D01D10020F4E7022D03D12320F0E7C6
:102300004FF6FF74B2E04FF6FF74AFE05948007823
:10231000052829D15648007A10B3554880881728D7
:102320000DDB53488088372809DA5148C0880028D7
:1023300005DB4F48C088302801DA792496E04C4804
:1023400080884D280DDB4A4880886D2809DA484886
:10235000C088002805DB4648C088262801DA7A2490
:1023600084E04FF6FF7481E04248007806287DD172
:102370003F48007AA8B33E48808800280DDB3C48DF
:102380008088322809DA3A48C088002805DB3848B6
:10239000C088142801DA792468E035488088C82884
:1023A0000DDB33488088F02809DA3148C0880028DE
:1023B00005DB2F48C088142801DA7A2456E02C481F
:1023C000808860280EDB2A48808880280ADA28481E
:1023D000C0883C2806DB2648C0885C2802DA7F24B7
:1023E00044E041E02248808890280DDB2048808826
:1023F000B02809DA1E48C0883C2805DB1C48C08884
:102400005C2801DA802431E01948C088B42828DD2E
:1024100017488088502190FBF1F0C5B21448C0885D
:10242000B438232190FBF1F086B2002D0CDB022D95
:102430000ADC002E08DB022E06DC06EB46002844F0
:10244000401CC5B228464CE7032E0FD10DB92A20F7
:1024500047E7012D01D1002043E7022D06D12320BB
:102460003FE74FF6FF7401E04FF6FF74204638E770
:10247000B8010020100000202DE9F04F04460D4661
:1024800016464FF0640894FBF8F394FBF8F908FB48
:1024900019412F46032F01DA0C37491EB44607F1C4
:1024A000010A4FF01A0B0AFB0BFA4FF00A0B9AFBCA
:1024B000FBFA4FEAE17B01EB9B7B01EBAB0B4FEAB5
:1024C000E37E03EB9E7E0BEBAE0B4FF0020E0EFB9A
:1024D00013BBDA44E244AAF1010200E0D21D002A53
:1024E000FCDB4FF0070892FBF8F908FB192808F00D
:1024F000FF00BDE8F08F00BFFEE7000010B5044606
:102500002CB14FF480510548FFF760FA04E04FF416
:1025100080510248FFF75CFA10BD00000014014032
:102520002DE9F04106460F4614461D46DDF8188099
:102530002B4622463946304600F0FDFC04FB05F0F0
:10254000414600F0C4FBBDE8F08101B502E000980F
:10255000401E009000980028F9D108BD2DE9F04FE9
:1025600089B081468A4616461F46DDF848B01023DA
:102570001A465146484600F0DEFC2C2000F054FE7E
:10258000314601A8FFF76AFB002426E001A810F8F5
:1025900014504FF6FF7000EA0525012000EB4400BF
:1025A00001A9085C05434FF0000811E005F4004064
:1025B00018B1584600F03CFE02E0384600F038FE04
:1025C0004FF6FF7000EA450508F1010000F0FF0832
:1025D000B8F1100FEADB601CC4B2102CD6DB09B0D6
:1025E000BDE8F08F2DE9F05F81468A4615461E460C
:1025F000A5F1200000F0FF0B1023082251464846A9
:1026000000F099FC2C2000F00FFE00241AE00F4887
:1026100000EB0B10075D4FF000080EE007F0010023
:1026200018B10A9800F004FE02E0304600F000FE07
:102630007F1008F1010000F0FF08B8F1080FEDDB92
:10264000601CC4B2102CE2DBBDE8F09F1A8C0008BD
:102650002DE9F05F82468B4617469846A7F1200089
:1026600000F0FF09202310225946504600F063FC79
:102670002C2000F0D9FD00252EE0194800EB891030
:1026800010F8154000260CE004F0010018B10A987B
:1026900000F0CEFD02E0404600F0CAFD6410701C60
:1026A000C6B2082EF0DB0E4800EB891000EB4500A7
:1026B000447800260CE004F0010018B10A9800F0FC
:1026C000B7FD02E0404600F0B3FD6410701CC6B2D6
:1026D000082EF0DB681CC5B2202DCEDBBDE8F09FD4
:1026E0000A9200082DE9F05F82468B469046994693
:1026F000A8F12000C7B2302318225946504600F0F6
:102700001AFC2C2000F090FD00264EE007EBC700DD
:10271000284901EB001006EB4601445C00250CE063
:1027200004F0010018B10A9800F082FD02E048466A
:1027300000F07EFD6410681CC5B2082DF0DB07EBCD
:10274000C7001C4901EB001006EB46010844447821
:1027500000250CE004F0010018B10A9800F068FDB3
:1027600002E0484600F064FD6410681CC5B2082D04
:10277000F0DB07EBC7000F4901EB001006EB460149
:102780000844847800250CE004F0010018B10A9890
:1027900000F04EFD02E0484600F04AFD6410681C5F
:1027A000C5B2082DF0DB701CC6B2302EAEDBBDE822
:1027B000F09F0000CAA900082DE9F84305460E461F
:1027C00014469846DDF820901FE028461030F02887
:1027D00003DD002506F1100086B230461030B0F55A
:1027E000A07F01DD002500262788380200EB272086
:1027F00087B243463A4631462846CDF80090FFF767
:10280000ADFE05F1100085B2A41C20780028DCD1B3
:10281000BDE8F8832DE9F84305460E4614461F46E9
:10282000DDF820801AE028460830F02803DD002576
:1028300006F1100086B230461030B0F5A07F01DD01
:1028400000250026CDF8008022783B4631462846F8
:10285000FFF7C8FE641C05F1080085B22078002847
:10286000E1D1BDE8F8832DE9F84305460E4614464C
:102870001F46DDF820801AE028461030F02803DDDE
:10288000002506F1200086B230462030B0F5A07F4A
:1028900001DD00250026CDF8008022783B46314638
:1028A0002846FFF7D5FE641C05F1100085B220789C
:1028B0000028E1D1BDE8F8832DE9F84305460E462E
:1028C00014461F46DDF820801AE028461830F0280C
:1028D00003DD002506F1300086B230463030B0F519
:1028E000A07F01DD00250026CDF8008022783B4640
:1028F00031462846FFF7F6FE641C05F1180085B244
:1029000020780028E1D1BDE8F8832DE9F843054699
:102910000E4614469946DDF820803EE020787E2859
:102920001BDC28460830F02803DD002506F11000E6
:1029300086B230461030B0F5A07F01DD00250026BC
:10294000CDF8008022784B4631462846FFF74AFEF4
:1029500005F1080085B2641C1FE028461030F028FD
:1029600003DD002506F1100086B230461030B0F5C8
:10297000A07F01DD002500262788380200EB2720F4
:1029800087B24B463A4631462846CDF80080FFF7DD
:10299000E5FD05F1100085B2A41C20780028BDD10A
:1029A000BDE8F8832DE9F05F05460E4691469B464B
:1029B00000240FFA89F70320A0EB49000FFA80FAF0
:1029C00097E00A98002848D0A04643E006EB0802AA
:1029D00091B22A1990B25A4600F014FC06EB080294
:1029E00091B22A1B90B25A4600F00CFC321991B2F7
:1029F000A5EB080290B25A4600F004FC321B91B2DB
:102A0000A5EB080290B25A4600F0FCFBA6EB0802C8
:102A100091B22A1B90B25A4600F0F4FBA6EB0802D2
:102A200091B22A1990B25A4600F0ECFB321B91B2D7
:102A300005EB080290B25A4600F0E4FB321991B25D
:102A400005EB080290B25A4600F0DCFB08F10100E9
:102A50000FFA80F8B845B9DD37E0F21991B22A19BA
:102A600090B25A4600F0CEFBF21991B22A1B90B2F6
:102A70005A4600F0C7FB321991B2EA1B90B25A468F
:102A800000F0C0FB321B91B2EA1B90B25A4600F034
:102A9000B9FBF21B91B22A1B90B25A4600F0B2FB6E
:102AA000F21B91B22A1990B25A4600F0ABFB321BCE
:102AB00091B2EA1990B25A4600F0A4FB321991B2D1
:102AC000EA1990B25A4600F09DFB601C04B2BAF1BC
:102AD000000F05DAA000801D50440FFA80FA07E0CD
:102AE000E01B80000A3050440FFA80FA781E07B2CB
:102AF00000BFBC427FF765AFBDE8F09F38B5044624
:102B00000D464FF47840A4F10A01009088B20123E9
:102B100014222946FFF704FD4FF478400090A5F1F8
:102B20000A0081B2142301222046FFF7F9FC38BDC8
:102B30002DE9FF4F85B081468A464FF0000B0020FB
:102B400001900798A0EB09050898A0EB0A06CDF8BC
:102B50000C90CDF808A0002D01DD012705E00DB98E
:102B6000002702E04FF0FF376D42002E02DD4FF0EC
:102B7000010806E016B94FF0000802E04FF0FF38F8
:102B80007642B54201DD2C4600E034460020049038
:102B90001EE0129ADDE9021000F034FBAB4401980C
:102BA00030440190A34505DDABEB040B039838449A
:102BB00080B203900198A04206DD0198001B0190AD
:102BC0000298404480B202900498401C80B2049065
:102BD000611C04988842DCDD09B0BDE8F08F2DE966
:102BE000F84304460D4616461F46DDE90889B9F14B
:102BF000000F08D03B46324629462046CDF80080DB
:102C0000FFF78EFC2FE0A019401E82B22B4629460A
:102C10002046CDF80080FFF78BFFE819401E83B2F5
:102C2000A019401E82B2E819401E81B22046CDF89C
:102C30000080FFF77DFFE819401E83B22246294637
:102C40002046CDF80080FFF773FFE919491E8BB2CB
:102C5000A119491E8AB2A119491E88B22946CDF888
:102C60000080FFF765FFBDE8F88300B597B001214C
:102C7000080200F0C3FB0220019000200290052012
:102C8000039000200490059006904FF0805007902C
:102C900000200890099008200A9010200B90002036
:102CA0000C900E900F9010904FF4805011900020D7
:102CB00012901390149001A81590169008A8FEF792
:102CC000F9FC01210020FEF7DBFC17B000BD70B558
:102CD00004460D4600262C2000F0A6FA00BF03E0B3
:102CE000284600F0A5FA761CA642F9D370BD000074
:102CF00008B50121084600F0B1FB0121602000F079
:102D0000ADFB03208DF8020018208DF803004CF273
:102D10000370ADF8000069462C48FEF7C3FD4FF67E
:102D20008070ADF8000069462948FEF7BBFD03201E
:102D30008DF8020018208DF803001020ADF8000077
:102D400069462248FEF7AEFD2020ADF80000694636
:102D50001E48FEF7A7FD0121202000F07FFB802008
:102D6000ADF8000069461948FEF79CFD01212020BE
:102D700000F074FB4FF40060ADF8000069461348A2
:102D8000FEF790FD10208DF8030003208DF802005F
:102D90000121402000F062FB0220ADF800006946EE
:102DA0000B48FEF77FFD10208DF8030003208DF8FF
:102DB00002000121202000F051FB4FF48050ADF8BB
:102DC000000069460148FEF76DFD08BD0014014092
:102DD0000018014010B50446012C06D0022C29D061
:102DE000032C4CD0042C24D16EE0362000F01CFAC9
:102DF000C82000F01DFA2A2000F016FA002000F08A
:102E000017FA002000F014FA002000F011FAEF2069
:102E100000F00EFA2B2000F007FA002000F008FA6C
:102E2000002000F005FA012000F002FA3F2000F037
:102E3000FFF96EE0362000F0F7F9682000F0F8F9AD
:102E40002A2000F0F1F9002000F0F2F9002000F053
:102E5000EFF9012000F0ECF93F2000F0E9F92B2018
:102E600000F0E2F9002000F0E3F9002000F0E0F9C2
:102E7000002000F0DDF9EF2000F0DAF949E036201B
:102E800000F0D2F9282000F0D3F92A2000F0CCF984
:102E9000002000F0CDF9002000F0CAF9012000F078
:102EA000C7F93F2000F0C4F92B2000F0BDF9002045
:102EB00000F0BEF9002000F0BBF9002000F0B8F9E6
:102EC000EF2000F0B5F924E0362000F0ADF94820FD
:102ED00000F0AEF92A2000F0A7F9002000F0A8F9D0
:102EE000002000F0A5F9002000F0A2F9EF2000F08A
:102EF0009FF92B2000F098F9002000F099F90020AC
:102F000000F096F9012000F093F93F2000F090F9CD
:102F100000BF00BF2C2000F087F910BD10B5FFF7EF
:102F2000E7FEFFF7A2FE0120FFF7E8FA00F04CF9F8
:102F300000F032F810BD2DE9F04104460D4616466A
:102F40001F462A2000F070F9201200F071F9E0B25B
:102F500000F06EF9A119491EC1F30F2000F068F9C5
:102F6000A119491EC8B200F063F92B2000F05CF9EA
:102F7000281200F05DF9E8B200F05AF9E919491E8B
:102F8000C1F30F2000F054F9E919491EC8B200F04E
:102F90004FF9BDE8F081000010B5CF2000F044F9F2
:102FA000002000F045F9812000F042F9302000F0C7
:102FB0003FF9ED2000F038F9642000F039F90320E2
:102FC00000F036F9122000F033F9812000F030F9DA
:102FD000E82000F029F9852000F02AF9102000F0FF
:102FE00027F9782000F024F9CB2000F01DF93920D2
:102FF00000F01EF92C2000F01BF9002000F018F959
:10300000342000F015F9022000F012F9F72000F04A
:103010000BF9202000F00CF9EA2000F005F900205F
:1030200000F006F9002000F003F9B12000F0FCF8F0
:10303000002000F0FDF81B2000F0FAF8B62000F0A8
:10304000F3F80A2000F0F4F8A22000F0F1F8C02014
:1030500000F0EAF8352000F0EBF8C12000F0E4F8C9
:10306000112000F0E5F8C52000F0DEF8452000F062
:10307000DFF8452000F0DCF8C72000F0D5F8A220EA
:1030800000F0D6F8F22000F0CFF8002000F0D0F8E1
:10309000262000F0C9F8012000F0CAF8E02000F076
:1030A000C3F80F2000F0C4F8262000F0C1F8242057
:1030B00000F0BEF80B2000F0BBF80E2000F0B8F8CE
:1030C000092000F0B5F8542000F0B2F8A82000F074
:1030D000AFF8462000F0ACF80C2000F0A9F817205B
:1030E00000F0A6F8092000F0A3F80F2000F0A0F8E7
:1030F000072000F09DF8002000F09AF8E12000F091
:1031000093F8002000F094F8192000F091F81B20AB
:1031100000F08EF8042000F08BF8102000F088F802
:10312000072000F085F82A2000F082F8472000F000
:103130007FF8392000F07CF8032000F079F80620B1
:1031400000F076F8062000F073F8302000F070F8F8
:10315000382000F06DF80F2000F06AF8362000F0FB
:1031600063F8C82000F064F82A2000F05DF8002021
:1031700000F05EF8002000F05BF8002000F058F846
:10318000EF2000F055F82B2000F04EF8002000F062
:103190004FF8002000F04CF8012000F049F83F20E3
:1031A00000F046F83A2000F03FF8552000F040F8D3
:1031B000112000F039F80348FFF7C7F9292000F083
:1031C00033F810BDFCBF020010B502210648FEF71F
:1031D000FDFB0648FFF7B9F902210348FEF7F8FBAB
:1031E0000248FFF7B2F910BD00180140FCBF020011
:1031F00070B504460D4601231A4629462046FFF7BE
:103200009AFE70BD70B506460C461546F02E0ADAD9
:10321000B4F5A07F07DA21463046FFF7E9FF2946DB
:103220000120FFF754FD70BD4FF0C041088070478A
:103230000149088070470000000002600146CA177B
:1032400001EB92729210A1EB820292B9642091FB81
:10325000F0F200FB121050B94FF4C87091FBF0F27D
:1032600000FB121008B9012070470020FCE7012084
:10327000FAE70020F8E7000010B501211548FEF735
:103280009CFB012807D141031348FEF796FB012858
:1032900001D103241BE001210E48FEF78EFB40B94B
:1032A0004FF400510C48FEF788FB012801D102249D
:1032B0000DE001210748FEF780FB012806D14103FC
:1032C0000548FEF77AFB08B9012400E000242046F7
:1032D00010BD0000000801400010014010B5FFF7CC
:1032E0001DFE02F096FB10BD00BFFEE7704708B55B
:1032F0001C208DF8000001208DF8010002208DF8BF
:10330000020001208DF80300684600F02DF83620F9
:103310008DF8000001208DF8010000208DF80200DA
:1033200001208DF80300684600F01EF837208DF864
:10333000000001208DF801008DF802008DF80300D7
:10334000684600F011F803208DF8000001208DF888
:10335000010002208DF8020001208DF8030068466C
:1033600000F002F808BD000070B5002100230F2214
:10337000C47804B3154C246804F4E064C4F5E06434
:10338000210AC1F10403CA40447804FA03F18478A5
:103390001440214309010E4C0678A155047804F02D
:1033A0001F050124AC4005786D11AD0005F1E02545
:1033B000C5F8004109E0047804F01F050124AC4081
:1033C000044D0678761145F8264070BD0CED00E0FE
:1033D00000E400E080E100E002490143024A11609C
:1033E000704700000000FA050CED00E0014908629A
:1033F0007047000000000E427047000029B1064AE5
:1034000052690243044B5A6104E0034A5269824301
:10341000014B5A61704700000010024029B1064A72
:10342000D2690243044BDA6104E0034AD269824361
:10343000014BDA61704700000010024029B1064AD2
:1034400012690243044B1A6104E0034A1269824381
:10345000014B1A61704700000010024029B1064A72
:1034600092690243044B9A6104E0034A92698243E1
:10347000014B9A61704700000010024029B1064AD2
:10348000D2680243044BDA6004E0034AD268824304
:10349000014BDA60704700000010024001490860EB
:1034A000704700004004424210B50146002200234C
:1034B00000204A11012A02D1094C236806E0022AA1
:1034C00002D1074C236A01E0054C636A01F01F0238
:1034D000012494401C400CB1012000E0002010BDEC
:1034E0000010024000210B4A11700A4A203A82F86B
:1034F0002010012802D0042808D103E00121054A48
:10350000117004E00521034A117000E000BF00BF04
:103510007047000020100240014908607047000019
:103520003C0442420249096A0143014A1162704760
:1035300000100240024909888143014A1180704706
:103540000428004010B501214FF0C050FFF766FF7E
:103550000120FFF74BFFFDF7EDF90120FFF7C2FF58
:1035600000BF4120FFF7A0FF0028FAD04FF4807081
:10357000FFF7D8FF0120FFF7CFFF00F08BF800F036
:103580007FF80121084600F04DF800F079F847F681
:10359000FF7000F065F800F073F80020FFF726FFD9
:1035A00010BD00000348008840F010000149088069
:1035B0007047000004280040034800884FF6EF7170
:1035C0000840014908807047042800400021034852
:1035D0000188001F008841EA004070471C28004015
:1035E00001460020064A12880A40D0B2044A121F3F
:1035F00012880A4012B108B1012000E00020704793
:103600000428004010B50120FFF7EAFF38B101207F
:10361000FFF790FF00F034F8014800F04DF810BDBE
:103620001200002029B1064A12880243044B1A8076
:1036300004E0034A12888243014B1A80704700005D
:103640000028004000B50246FFF7ACFF100C03490C
:103650000880091D0A80FFF7AFFF00BD1828004051
:1036600000B50246FFF79EFFC2F3034003490880FE
:10367000091D0A80FFF7A0FF00BD000008280040D8
:1036800000BF0348008800F020000028F9D07047F0
:1036900004280040074800884FF6F77108400549A4
:1036A000088000BF0348008800F008000028F9D017
:1036B000704700000428004070B504460025FFF75D
:1036C00085FF054621462846FDF766F970BD21B104
:1036D000028842F04002028004E002884FF6BF7385
:1036E0001A4002807047000070B505460C46164629
:1036F00001211048FEF76AF9032000F047F9C4F3EE
:10370000074000F043F9C4F3072000F03FF9E0B2AE
:1037100000F03CF904E0FF2000F038F928706D1C3F
:103720003000A6F10106F6D101210248FEF750F95A
:1037300070BD0000001001402DE9F05F07460E4605
:1037400014464FF00008C146C2460025AB4606F0BD
:10375000FF0ACAF10000C5B22046E11704EB11616F
:10376000C1F30728E11704EB11610912A4EB012151
:1037700001F0FF09BAF1000F20D1B8F1000F05D117
:1037800022463146384600F069F864E009E04FF41B
:1037900080723146384600F061F806F5807607F50C
:1037A00080775FEA0800A8F1010101F0FF08EED17F
:1037B0004A463146384600F051F84CE0B8F1000F67
:1037C00018D1A94510DDA9EB050000F0FF0B2A4632
:1037D0003146384600F042F82E442F445A463146CE
:1037E000384600F03BF836E022463146384600F0D5
:1037F00035F830E0601B84B22046E11704EB11611C
:10380000C1F30728E11704EB11610912A4EB0121B0
:1038100001F0FF092A463146384600F01FF82E44D1
:103820002F4409E04FF480723146384600F016F814
:1038300006F5807607F580775FEA0800A8F10101B8
:1038400001F0FF08EED1B9F1000F04D04A4631462D
:10385000384600F003F8BDE8F09F000070B505465B
:103860000C46164600F0F6F801211348FEF7AEF8B4
:10387000022000F08BF8C4F3074000F087F8C4F38F
:10388000072000F083F8E0B200F080F8B6F5807F02
:1038900001DD4FF4807603E0287800F077F86D1CA6
:1038A0003000A6F101018EB2F6D101210248FEF7E7
:1038B0008FF800F0A5F870BD0010014010B500248D
:1038C00001210C48FEF782F8AB2000F05FF8FF20E2
:1038D00000F05CF8FF2000F059F8FF2000F056F8E7
:1038E000FF2000F053F8044601210248FEF770F86B
:1038F000204610BD001001402DE9F04100240025B4
:103900000026002701210F48FEF760F89F2000F0F5
:103910003DF8FF2000F03AF80546FF2000F036F8A9
:103920000646FF2000F032F8074601210548FEF761
:103930004FF8280440EA062040EA07042046BDE884
:10394000F08100000010014010B5044600F082F83C
:1039500000F056F801210C48FEF738F8202000F05E
:1039600015F8C4F3074000F011F8C4F3072000F085
:103970000DF8E0B200F00AF801210348FEF728F83C
:1039800000F03EF810BD00000010014010B50446E4
:103990004FF480501849086009E017490868411E33
:1039A000154A116018B900F091F8C0B210BD02219B
:1039B000124800F05FF80028EFD021460F4800F0D1
:1039C00065F84FF480500C49086009E00A4908681E
:1039D000411E094A116018B900F078F8C0B2E5E755
:1039E0000121064800F046F80028EFD0034800F017
:1039F0004AF8C0B2DAE7000074000020003001404D
:103A000010B5002401211148FDF7E0FF0520FFF764
:103A1000BDFF4FF480500E49086000BFFF20FFF744
:103A2000B5FF04460A490868411E094A116010B9E9
:103A300000F04CF810BD04F001000028EED1012187
:103A40000248FDF7C5FF00BFF4E700000010014089
:103A50007400002010B501210548FDF7B7FF0620CE
:103A6000FFF794FF01210248FDF7B2FF10BD0000EF
:103A7000001001400246002013890B400BB10120C9
:103A800000E00020704701468889704781817047B7
:103A900010B50022028802F441520B884C8823435F
:103AA0008C882343CC8823430C8923434C892343AC
:103AB0008C892343CC8923431A430280838B4FF2A2
:103AC000FF74234083830B8A038210BD10B502A0CC
:103AD00002F05EFB002010BD3C3C2D464C4153489B
:103AE0002D4552524F522D3E3E205350492054698D
:103AF0006D656F7574206572726F72210A00000027
:103B0000704710B500F002F810BD00000CB50020A1
:103B1000019000903348006840F4803031490860DB
:103B200000BF3048006800F4003000900198401C4D
:103B30000190009818B90198B0F5A06FF1D129480B
:103B4000006800F4003010B10120009001E0002076
:103B500000900098012843D12348006840F01000ED
:103B6000214908600846006820F003000860084604
:103B7000006840F0020008601A484068194948602F
:103B80000846406848600846406840F480604860E5
:103B90000846406820F47C1048600846406840F4BD
:103BA000E81048600846006840F08070086000BF78
:103BB0000C48006800F000700028F9D009484068FF
:103BC00020F00300074948600846406840F00200C2
:103BD000486000BF0348406800F00C000828F9D195
:103BE0000CBD0000001002400020024070B50446E9
:103BF0000025208840F2B271884204DB208840F61C
:103C00003301884201DD012070BD40F2B2760AE046
:103C10003046FFF713FB10B12148054401E021486D
:103C20000544701C86B22088B042F1DC012610E009
:103C30001D48805D40F2A321484305EBC015208854
:103C4000FFF7FCFA18B1022E01D118480544701C88
:103C500086B2E078B042EBDC2079401E40F2A3212E
:103C6000484305EBC0156079C0EB4011C1EB002063
:103C700005EB0015A079C0EB001005EB8005E0799D
:103C8000054401214FF0C050FFF7C8FB0120FFF7AA
:103C9000ADFB2846FFF7D6FCFFF7F2FC0020B3E7A8
:103CA0000085E2018033E101318B00088051010081
:103CB00010B5002305E011F8014B00F8014B5C1C26
:103CC000A3B29342F7DB10BD704710B5FDF790FD2E
:103CD000FFF704FBFFF736FCFDF766FCFDF75EFD22
:103CE00000F0FEF800F0E6F900F038F800F084F893
:103CF000FFF7FDFAFCF742FE10BD000010B51348B7
:103D0000006840F001001149086008464068104909
:103D100008400E494860084600680E4908400B49B3
:103D200008600846006820F4802008600846406863
:103D300020F4FE0048604FF41F008860FFF7E1FEAA
:103D40004FF000600449086010BD00000010024000
:103D50000000FFF8FFFFF6FE08ED00E000B589B0B7
:103D600001210420FFF77AFB4FF48070ADF81400B6
:103D700018208DF8170003208DF8160005A91C489F
:103D8000FDF790FD0121C802FFF768FB40F2E73024
:103D9000ADF81C004720ADF818000020ADF81E005B
:103DA000ADF81A008DF8200006A9124800F056FB65
:103DB0006020ADF804000120ADF806000020ADF849
:103DC00008004FF4FA70ADF80A000020ADF80C00BE
:103DD000ADF80E00ADF81000ADF8120001A90548CD
:103DE00000F0E6FA0821034800F02EFB09B000BD00
:103DF00000080140002C01400EB501210846FFF7E4
:103E00000DFB4FF0804000F0C5F96320ADF80400D1
:103E100041F61F40ADF800000020ADF80600ADF8F7
:103E200002008DF8080069464FF0804000F016FB54
:103E300001221146900700F0B2FA0EBD10B5012123
:103E4000880700F09BFA012840D10121800700F08B
:103E500083F91F480068401C1D4908600846006837
:103E60001C49B0FBF1F01821B0FBF1F201FB12008C
:103E7000194908701648006841F27071B0FBF1F002
:103E80003C21B0FBF1F201FB1200134948701048CD
:103E900000686421B0FBF1F03C21B0FBF1F201FBC2
:103EA00012000D4988700A4800686421B0FBF1F2E5
:103EB00001FB12000849C87008480088401C6421B2
:103EC00090FBF1F201FB12000449088010BD0000D4
:103ED00000000020407E05002A0000207A0000201B
:103EE0000EB501211020FFF799FA0C4800F052F9A5
:103EF0006320ADF8040041F61F40ADF800006946AC
:103F0000064800F0ABFA01221146044800F047FAD7
:103F10000121024800F023F90EBD0000001000400E
:103F200010B50121584800F029FA012873D1012168
:103F3000554800F011F955480088401C642190FB59
:103F4000F1F201FB12005149088000F0D9FA504803
:103F5000008850490880504800884D490880FFF784
:103F60008BF94D49088008460088494909888842EC
:103F700044D14948008850B14648008838B980206B
:103F800046490880444800884549088036E0424850
:103F90000088C0B13F480088A8B1C0203F490880D0
:103FA000404800683C2804D23B4800883C490880CF
:103FB00024E03C4800683C2820D337480088103073
:103FC000374908801AE03448008850B931480088E1
:103FD00038B14020314908802E4800883049088097
:103FE0000CE02D48008848B92A48008830B90020E4
:103FF0002A49088028480088294908802A48007AE8
:10400000802803D025480088802805D10020254934
:1040100008602649086036E02348007AC02803D0AB
:104020001E480088C02805D11E480068401C1D4954
:10403000086028E01C48007A40280AD100201B496B
:104040000860184908601A480078401C1849087030
:1040500019E012480088402803D100201349086065
:1040600011E01148007A70B90C48008858B90F481F
:104070000068401C0D490860084600683C2802D3CF
:1040800000200B49087010BD001000408600002081
:1040900080000020820000207E000020840000209C
:1040A0000400002008000020B80100200C000020BF
:1040B0007C0000200EB501212020FFF7AFF90A484F
:1040C00000F068F840F21F30ADF8040041F61F40E0
:1040D000ADF800006946044800F0C0F9012211461D
:1040E000014800F05CF90EBD0014004010B501213C
:1040F000164800F043F9012826D10121134800F0A9
:104100002BF813480088401C192190FBF1F201FBA9
:1041100012000F49088008460088082810DA08882D
:1041200000EBD0714910A0EB410121B901210948F0
:1041300000F021F808E00021064800F01CF803E038
:104140000021044800F017F810BD000000140040E2
:1041500088000020002C0140CA430282704721B130
:10416000028842F00102028004E002884FF6FE73EA
:104170001A400280704731B1B0F8442042F4004246
:10418000A0F8442005E0B0F84420C2F30E02A0F8E5
:104190004420704710B504466848844208D1012184
:1041A000C014FFF76BF90021E014FFF767F9C4E0D2
:1041B000B4F1804F08D101210846FFF73FF90021F3
:1041C0000120FFF73BF9B8E05D48844208D10121A6
:1041D0000220FFF733F900210220FFF72FF9ACE0AE
:1041E0005848844208D101210420FFF727F9002113
:1041F0000420FFF723F9A0E05348844208D10121AD
:104200000820FFF71BF900210820FFF717F994E0B9
:104210004E48844208D101211020FFF70FF90021F8
:104220001020FFF70BF988E04948844208D10121AA
:104230002020FFF703F900212020FFF7FFF87CE0A2
:104240004448844208D101214014FFF717F90021A6
:104250006014FFF713F970E03F48844209D101214F
:10426000C804FFF70BF900214FF40020FFF706F90F
:1042700063E03A48844209D101210805FFF7FEF8BE
:1042800000214FF48010FFF7F9F856E034488442DB
:1042900009D101214805FFF7F1F800214FF4001082
:1042A000FFF7ECF849E02F48844208D10121402073
:1042B000FFF7C4F800214020FFF7C0F83DE02A488E
:1042C000844208D101218020FFF7B8F80021802026
:1042D000FFF7B4F831E02548844208D10121801568
:1042E000FFF7ACF80021A015FFF7A8F825E020485B
:1042F000844209D101210804FFF7C0F800214FF4DE
:104300008030FFF7BBF818E01A48844209D1012138
:104310004804FFF7B3F800214FF40030FFF7AEF880
:104320000BE01548844208D101218804FFF7A6F864
:1043300000214FF48020FFF7A1F810BD002C0140B0
:104340000004004000080040000C00400010004045
:104350000014004000340140004C01400050014076
:104360000054014000180040001C004000200040A4
:1043700000400140004401400048014030B5024681
:10438000002000230024158A05EA0103958905EA27
:10439000010413B10CB1012000E0002030BD1AB1BE
:1043A00083890B43838102E083898B438381704738
:1043B00070B5002400220023058C4FF6FE763540B0
:1043C0000584028C8388048B4FF68F752C40B51EB4
:1043D0002C400D882C43751E2A400D892A434D8898
:1043E0002A43144DA8420BD0134DA84208D0134DB8
:1043F000A84205D0124DA84202D0124DA84213D1B6
:104400004FF6F7752A404D892A434FF6FB752A402F
:104410008D882A434FF6FF652B404FF6FF552B4002
:104420008D892B43CD892B4383800483CD8885865A
:10443000028470BD002C0140003401400040014066
:1044400000440140004801400A460021018B4FF61C
:10445000F77319401143018370470000002202885E
:104460001D4B98420ED01D4B98420BD0B0F1804F9F
:1044700008D01B4B984205D01A4B984202D01A4BD9
:10448000984204D14FF68F731A404B881A43174B4A
:10449000984207D0164B984204D04FF6FF431A407B
:1044A000CB881A4302808B8883850B8803850A4B4F
:1044B00098420BD0094B984208D00E4B984205D039
:1044C0000D4B984202D00D4B984201D10B7A0386D6
:1044D0000123838270470000002C0140003401401A
:1044E0000004004000080040000C004000100040A4
:1044F00000140040004001400044014000480140D9
:1045000008B51F48007808B31E49684601F01CFA38
:1045100030B1BDF800001C498880BDF80200C88099
:104520001948007A00F0800048B9802016490872C6
:104530000846808808800846C08848801BE01248EA
:10454000007A40F040001049087214E00E48007AEA
:1045500000F0800030B10C48007A20F080000A4959
:10456000087208E0002008490872088048804FF669
:10457000FF708880C8800448007A00F0800008BD81
:104580007000002040000020B801002070B598B0F5
:1045900000204FF4A073F02201460090FDF7C0FF09
:1045A0004FF6FF70002369A2194600901420FEF711
:1045B000ACF94FF6FF70002366A2194600904F2019
:1045C000FEF7A3F94FF6FF70002364A2194600908E
:1045D0008620FEF79AF94FF6FF70002361A2194674
:1045E0000090B820FEF791F90923A0228C217820B1
:1045F00002F0D8FA01204FF4784314224FF4957159
:1046000000907820FEF7CEF94FF6FF704FF4784314
:1046100056A24FF4917100906820FEF776F990E071
:104620005448C079A8420FD05248C579C079514941
:104630008979504A52790923CDE900210290A022BC
:104640008C21782002F06CFD4A480079009049489E
:10465000C378028848A10EA801F0AAFD4FF6FF70AA
:1046600000230EAAF02100903C20FEF74EF9414BAA
:104670001A79D9781888FDF7FFFE00EB400042490F
:1046800046183C48C079CDE900063A48837942791A
:104690003EA104A801F08CFD4FF6FF70002304AA90
:1046A0004FF4827100903C20FEF72FF93C48007ACD
:1046B000002838D0FDF77CFB0446792C07D100BFD9
:1046C0003748007A0028FBD1364908703AE07A2C46
:1046D00008D100BF3248007A0028FBD101203149BF
:1046E00008702FE07B2C08D100BF2D48007A0028ED
:1046F000FBD102202B49087024E07C2C08D100BF9C
:104700002748007A0028FBD103202649087019E0C9
:104710007D2C08D100BF2248007A0028FBD104205C
:10472000204908700EE020480068B0F57A7F07D96C
:104730001C4800781D49088010201A49087001E0C3
:1047400000BF6DE700BF18B070BD0000CAB1D6D37E
:1047500000000000C4D6D6D300000000C3EBB1EDCA
:1047600000000000D4C2C0FA00000000C9E8D6C3AF
:104770000000000012000020253032642D25303268
:10478000642D2530326420001C8B00082025303237
:10479000643A253032643A253032642025730000B3
:1047A000B8010020100000200C0000202E00002086
:1047B00010B596B000201423F02201460090FDF7BA
:1047C000AFFE00204FF49673F02214210090FDF705
:1047D000A7FE01204FF6FF715023F022CDE9001013
:1047E00028210020FEF7FBF9012000230A223C21AA
:1047F0000090B920FEF7D6F80120002115231C22D5
:10480000CDE900103221B920FEF7E9F9012000239B
:104810000A223C210090D720FEF7C4F87B48038889
:104820007B4802887BA10CA801F0C2FC00204FF657
:10483000FF730CAA322100901E20FEF714F800200E
:104840004FF6FF7376A25A2100900A20FEF75DF81A
:10485000D8E04FF6FF70002377A21946009014208D
:10486000FEF753F84FF6FF70002375A2194600902B
:104870004F20FEF74AF84FF6FF70002372A2194648
:1048800000908620FEF741F84FF6FF70002370A2DB
:1048900019460090B820FEF738F85C4803885C4859
:1048A00002886DA102A801F083FC00204FF6FF737F
:1048B00002AA322100901E20FDF7D5FF6948007A38
:1048C00000286BD0FDF774FA0446792C07D100BF9D
:1048D0006448007A0028FBD16349087093E07A2C81
:1048E00008D100BF5F48007A0028FBD101205E4953
:1048F000087088E07B2C08D100BF5A48007A002855
:10490000FBD10220584908707DE07C2C08D100BF03
:104910005448007A0028FBD103205349087072E004
:104920007D2C08D100BF4F48007A0028FBD106201B
:104930004D49087067E07E2C31D108E001204FF42A
:1049400078430A223C210090B920FEF72BF8454815
:10495000007A0028F2D10120002115231222CDE98E
:1049600000103221C320FEF73AF9012000230A2269
:104970003C210090D720FEF715F83C4840792449A7
:104980000988884231D1394880792049098888428C
:104990002BD14FF480713648FDF71AF825E07F2CB3
:1049A00023D107E001201F230A223C210090D720B9
:1049B000FDF7F8FF2B48007A0028F3D101200023EF
:1049C0000A223C210090B920FDF7ECFF01200021D4
:1049D00015231422CDE900103221B920FEF7FFF88B
:1049E0004FF480712248FCF7F1FF22480068B0F5CF
:1049F0007A7F07D91C4800781F49088010201A497F
:104A0000087000E025E700BF16B010BD320000209E
:104A100030000020253032643A2530326420000016
:104A2000C8D520D2BB20B6FE20C8FD20CBC420CEE6
:104A3000E520C1F900000000CAB1D6D30000000093
:104A4000C4D6D6D300000000C3EBB1ED00000000D7
:104A5000D4C2C0FA0000000020253032643A25306C
:104A600032642000B8010020100000201200002055
:104A7000000801400C0000202E00002010B588B076
:104A800000201423F02201460090FDF749FD4FF667
:104A9000FF704FF49673F022142100900020FDF770
:104AA0003FFD4FF6FF7000238DA2194600901420A1
:104AB000FDF72BFF4FF6FF7000238BA219460090E5
:104AC0004F20FDF722FF4FF6FF70002388A2194602
:104AD00000908620FDF719FF4FF6FF70002386A295
:104AE00019460090B820FDF710FF012045F6DA4185
:104AF0001E234222CDE900104FF491710A20FEF7E7
:104B00006EF8012045F6DA411E234222CDE900105D
:104B10004FF491715620FEF762F8012045F6DA4114
:104B20001E234222CDE900104FF49171A220FEF71E
:104B300056F8002045F6DA4371A240F229110090A0
:104B40001C20FDF739FE002045F6DA436EA240F244
:104B5000291100906720FDF72FFE002045F6DA436B
:104B60006BA240F229110090B320FDF725FE6A48A0
:104B7000C07869498978CDE90010674843780278A0
:104B800066A103A801F014FB00204FF6FF7303AAEF
:104B9000282100900A20FDF766FE9DE06548007A16
:104BA000002876D0FDF704F90446792C07D100BF20
:104BB0006048007A0028FBD15F4908708DE07A2CAC
:104BC00008D100BF5B48007A0028FBD101205A4978
:104BD000087082E07B2C08D100BF5648007A00287C
:104BE000FBD102205449087077E07C2C08D100BF2B
:104BF0005048007A0028FBD103204F4908706CE030
:104C00004C4880880A2812DB4A4880884C280EDAF3
:104C10004848C088B0F5917F09DB4648C088B0F5A8
:104C2000A07F04DA01218807FFF799FA31E04148B3
:104C30008088562816DB3F488088982812DA3D483D
:104C4000C088B0F5917F0DDB3A48C088B0F5A07FF1
:104C500008DA0020394908602F49087048708870C8
:104C6000C87016E033488088A22812DB314880885B
:104C7000E4280EDA2F48C088B0F5917F09DB2D4873
:104C8000C088B0F5A07F04DA00214FF08040FFF724
:104C900066FA2148C07820498978CDE900101E487D
:104CA000437802781DA103A801F082FA00204FF694
:104CB000FF7303AA282100900A20FDF7D4FD2048A5
:104CC0000068B0F57A7F07D91B4800781D49088035
:104CD00010201949087000E060E700BF08B010BD5F
:104CE000CAB1D6D300000000C4D6D6D3000000005D
:104CF000C3EBB1ED00000000D4C2C0FA0000000018
:104D0000BCC6CAB100000000C7E5C1E30000000056
:104D1000D4DDCDA3000000002A0000202025303281
:104D2000643A253032643A253032643A25303264B0
:104D300000000000B801002010000020000000204A
:104D40000C0000202E000020F8B57048C078704993
:104D500008706E48857886784FF6FF704FF4A07320
:104D6000F022002100900846FDF7DAFB00203223F4
:104D7000F02201460090FDF7D3FB644FBB78BA7870
:104D8000F9783888FBF77CFE4FF6FF70002361A2AC
:104D9000194600901420FDF7B8FD4FF6FF70002370
:104DA0005EA2194600904F20FDF7AFFD4FF6FF7051
:104DB00000235CA2194600908620FDF7A6FD4FF661
:104DC000FF70002359A219460090B820FDF79DFD01
:104DD00099E05848007A002853D0FCF7E9FF0446D0
:104DE000792C07D100BF5348007A0028FBD15249E3
:104DF000087089E07A2C08D100BF4E48007A00285C
:104E0000FBD101204C4908707EE07B2C08D100BF0B
:104E10004848007A0028FBD102204749087073E017
:104E20007C2C08D100BF4348007A0028FBD1032026
:104E30004149087068E07D2C24D100BF3D48007ACC
:104E40000028FBD1324800780C2805DA3048007879
:104E5000401C2F49087002E001202D4908704FF6D0
:104E6000FF704FF4A073F022322100900020FDF774
:104E700057FB33462A46264801784FF4FC60FBF77F
:104E8000FFFD33E07E2C24D100BF2A48007A0028A1
:104E9000FBD11F480078012805DD1D480078401E21
:104EA0001B49087002E00C20194908704FF6FF708A
:104EB0004FF4A073F022322100900020FDF730FB68
:104EC00033462A46124801784FF4FC60FBF7D8FDC0
:104ED0000CE04FF6FF70844208D0E6B20B49088818
:104EE00023462A460A490978FBF7CAFD1348006899
:104EF000B0F57A7F07D91048007811490880102052
:104F00000D49087000E064E700BFF8BD1200002002
:104F100034000020CAB1D6D300000000C4D6D6D3D6
:104F200000000000C3EBB1ED00000000D4C2C0FAE5
:104F300000000000B8010020100000200C0000203C
:104F40002E0000202DE9F0418CB0002600274FF004
:104F5000230800204FF4A073F02201460090FDF7D3
:104F6000DFFAB748B7490A680260496841604FF6FE
:104F7000FF700023B4A2052100901846FDF7C5FC80
:104F80004FF6FF700023B2A205210090BE20FDF76E
:104F9000BCFCAC4800790090AA48C3780288AEA156
:104FA00002A801F005F94FF6FF70002302AA28219C
:104FB00000900846FDF7A9FCA248C0790090A148DE
:104FC00083794279AAA102A801F0F2F84FF6FF70A6
:104FD000002302AA3C2100903020FDF744FC00256C
:104FE00031E0012045F6DA41CDE90010C5EBC500FE
:104FF00000EB8000B43081B21E2348220620FDF76A
:10500000EEFD012045F6DA41CDE90010C5EBC50003
:1050100000EB8000B43081B21E2348225420FDF7FB
:10502000DEFD012045F6DA41CDE90010C5EBC500F3
:1050300000EB8000B43081B21E234822A220FDF78D
:10504000CEFD681C85B2042DCBDB4FF2DE708723CA
:105050000622B42100904E20FDF762FA4FF2DE7076
:1050600087230622B42100909C20FDF759FA4FF2C5
:10507000DE700623E422D22100901846FDF750FA94
:105080004FF2DE700623E422F52100901846FDF76A
:1050900047FA4FF2DE700623E4224FF48C71009041
:1050A0001846FDF73DFA4FF4784045F6DA433122D1
:1050B000BB2100902720FDF795FA4FF4784045F684
:1050C000DA433422DE2100902720FDF78BFA4FF4DB
:1050D000784045F6DA43372240F20111009027204C
:1050E000FDF780FA4FF4784045F6DA4364A24FF4B6
:1050F000917100901A20FDF75FFB4FF4784045F660
:10510000DA433222BB2100907420FDF76BFA4FF492
:10511000784045F6DA433522DE2100907420FDF711
:1051200061FA4FF4784045F6DA43382240F2011133
:1051300000907420FDF756FA4FF4784045F6DA43B4
:1051400030224FF4927100907420FDF74BFA4FF427
:10515000784045F6DA433322BB210090C220FDF7A8
:1051600041FA4FF4784045F6DA433622DE210090CA
:10517000C220FDF737FA4FF4784045F6DA4339227A
:1051800040F201110090C220FDF72CFA4FF4784054
:1051900045F6DA433CA24FF491710090B620FDF73A
:1051A0000BFB47E03A48007A002836D0FCF700FEB7
:1051B0000446792C07D100BF3548007A0028FBD17E
:1051C0003449087037E07A2C0AD11D48FEF70EFDED
:1051D0004FF47A70FBF74FFC00202E4908702AE04C
:1051E0007B2C02D103F084F817E07C2C02D102F072
:1051F00019FF12E07D2C02D102F0F6FC0DE07E2CAE
:1052000002D102F0A3FD08E07F2C02D102F054FE8F
:1052100003E0802C01D102F0B7FF1F480068B0F511
:105220007A7F07D91B4800781C490880102019494B
:10523000087000E0B6E700BF0CB0BDE8F0810000E8
:105240001A000020120000203C3CB7B5BBD800007B
:10525000B1A3B4E63E3E00002530326420C4EA200B
:105260002530326420D4C2202530326420C8D500D5
:10527000253032643A253032643A253032642000D9
:10528000C7E5B3FD00000000C8B7B6A800000000E5
:10529000B8010020100000200C0000202E0000208B
:1052A00000BFFEE72DE9F0418CB0002600274FF04B
:1052B000230800204FF4A073F02201460090FDF770
:1052C0002FF9A548A5490A680260496841604FF670
:1052D000FF700023A2A2052100901846FDF715FBE0
:1052E0004FF6FF700023A0A205210090BE20FDF71D
:1052F0000CFB9F4803889F4802889FA102A800F0EA
:1053000057FF4FF6FF70002302AA3C210090602057
:10531000FDF7A9FA002531E0012045F6DA41CDE993
:105320000010C5EBC50000EB8000B43081B21E2335
:1053300048220620FDF753FC012045F6DA41CDE96D
:105340000010C5EBC50000EB8000B43081B21E2315
:1053500048225420FDF743FC012045F6DA41CDE90F
:105360000010C5EBC50000EB8000B43081B21E23F5
:105370004822A220FDF733FC681C85B2042DCBDB4C
:105380004FF2DE7087230622B42100904E20FDF7F5
:10539000C7F84FF2DE7087230622B42100909C20CC
:1053A000FDF7BEF84FF2DE700623E422D221009012
:1053B0001846FDF7B5F84FF2DE700623E422F5211A
:1053C00000901846FDF7ACF84FF2DE700623E42299
:1053D0004FF48C7100901846FDF7A2F84FF4784016
:1053E00045F6DA433122BB2100902720FDF7FAF879
:1053F0004FF4784045F6DA433422DE21009027202E
:10540000FDF7F0F84FF4784045F6DA43372240F2E2
:10541000011100902720FDF7E5F84FF4784045F69C
:10542000DA4358A24FF4917100901A20FDF7C4F9A5
:105430004FF4784045F6DA433222BB2100907420C5
:10544000FDF7D0F84FF4784045F6DA433522DE21F7
:1054500000907420FDF7C6F84FF4784045F6DA4323
:10546000382240F2011100907420FDF7BBF84FF490
:10547000784045F6DA4330224FF492710090742060
:10548000FDF7B0F84FF4784045F6DA433322BB21FC
:105490000090C220FDF7A6F84FF4784045F6DA43B5
:1054A0003622DE210090C220FDF79CF84FF47840B0
:1054B00045F6DA43392240F201110090C220FDF78F
:1054C00091F84FF4784045F6DA4330A24FF49171E9
:1054D0000090B620FDF770F938E02E48007A18B336
:1054E000002003462CA2802100900A20FDF70DFA2F
:1054F000FCF75EFC0446792C08D100BF2548007AF1
:105500000028FBD101202B49087020E07A2C07D11C
:105510004FF47A70FBF7AFFA01202649087016E0C5
:105520007F2C02D103F012F903E0802C01D103F0AB
:10553000D1F921480068B0F57A7F07D91D48007875
:105540001E49088010201B49087000E0C5E700BF15
:105550000CB0BDE8F08100001A000020120000200D
:105560003C3CB7B5BBD80000B1A3B4E63E3E00005A
:105570003200002030000020253032643A253032DD
:1055800064200000C7E5B3FD00000000C8B7B6A85E
:1055900000000000B8010020202020202020202032
:1055A00020202020202020202020202020202020FB
:1055B00020000000100000200C0000202E00002021
:1055C00010B58CB000204FF4A073F022014600907B
:1055D000FCF7A6FF01204FF6FF717823F022CDE9FA
:1055E000001019460020FDF7FAFA44E02448C0797B
:1055F000009023488379427922A102A800F0D8FDC7
:1056000000204FF6FF7302AA782100901420FDF7C6
:1056100053F91B4B1A79D9781888FCF72DFF00EB4A
:1056200040001C49441816480079CDE9000414488C
:10563000C378028818A102A800F0BAFD00204FF636
:10564000FF7302AAB42100901420FDF75EF9002038
:105650004FF6FF7315A2C82100901420FDF755F9ED
:105660001748007A38B117480078174908700020A9
:105670001649086000E0B9E700BF0CB010BD00009B
:1056800012000020253032643A253032643A253049
:10569000326400001C8B0008253032642D25303226
:1056A000642D25303264202025730000B5E7D7D360
:1056B00041313332312D30342DBAFAD0C2CDFA0017
:1056C000B80100202E000020100000200C00002057
:1056D00000BFFEE72DE9F04705460C4616464FF0A1
:1056E000010921882289891AE38862899A1A51431B
:1056F000A2882389D31A67886289BA1A03FB121019
:10570000FAF76EFFC6E90C0100221346D6E90C71C8
:105710003846FAF7AFFF02D14FF0000989E0298837
:105720002A89891AE38862899A1A5143AA882B899F
:10573000D31A67886289BA1A03FB1210FAF750FF6E
:10574000C6E9000121882289891AAA882B89D21AE0
:1057500051432A88D21AA3882789DB1B02FB131026
:10576000FAF73EFFC6E902012189AA885143A288BF
:105770002B8902FB13116288514322885A432389E3
:105780002F8803FB1723E28803FB0212A1887943C9
:105790002388AF8803FB1713618903FB0120FAF705
:1057A0001FFFC6E904016A886989511AE388628982
:1057B0009A1A5143EB886A899B1A67886289BA1AD8
:1057C00003FB1210FAF70CFFC6E9060121882289B3
:1057D000891AEB886A899A1A51436B886A899A1ADE
:1057E000A3882789DB1B02FB1310FAF7F9FEC6E931
:1057F00008012189EA885143A3886A8903FB1211B1
:105800006288514322886B895A4323896F8803FB3E
:105810001723E28803FB0213A18879432788EA88CB
:1058200007FB1212618902FB0130FAF7D9FEC6E9C3
:105830000A014846BDE8F08701B5002007E00C21C9
:1058400000BF0A00A1F10103D9B2FAD1401C0099AE
:105850008842F4D308BD00000EB501214120FDF7B8
:10586000FDFD00F01FF81020ADF8080048208DF86D
:105870000B0002A90A48FCF715F804210846FBF7BB
:10588000F1FF1020009000208DF8040010208DF80A
:10589000050001208DF806006846FBF73BFE0EBDB3
:1058A0000018014008B54FF4C060FDF795FD0A20CF
:1058B0008DF8000001208DF801008DF802008DF8B0
:1058C00003006846FDF750FD08BD000008B5012142
:1058D0006020FDF7C3FD0120ADF800008DF8020047
:1058E00010208DF8030069461548FBF7DBFF042004
:1058F000ADF8000069461248FBF7D4FF0820ADF868
:10590000000001208DF8020048208DF80300694650
:105910000B48FBF7C7FF4FF40050ADF80000012023
:105920008DF8020010208DF8030069460548FBF74A
:10593000B9FF4FF400510348FCF748F808BD0000D8
:1059400000180140001401402DE9F04F89B0814654
:105950000C460120079006A800F06AF8002852D0F3
:10596000BDF81A00FAF74DFE0546D4E902733A462F
:10597000FAF750FD82468B46BDF81800FAF741FE53
:105980000746D4E900532A46FAF744FD52465B46DF
:10599000CDE90001FAF797FCCDE90201D4E90453FF
:1059A0002A46FAF790FCCDE90401FAF737FEA9F888
:1059B0000000BDF81A00FAF724FE0746D4E90853A0
:1059C0002A46FAF727FD82468B46BDF81800FAF7FB
:1059D00018FE0746D4E906532A46FAF71BFD52463D
:1059E0005B46CDE90001FAF76EFCCDE90201D4E98E
:1059F0000A532A46FAF767FCCDE90401FAF70EFECE
:105A0000A9F8020001E000200790079809B0BDE85E
:105A1000F08F10B5FFF75AFFFFF71EFF10BD10B54E
:105A20000446204600F082FB00F05AF910BD000049
:105A300030B591B004460025242106A8FAF79BFB57
:105A400000BF0FA910A800F037F9BDF9400006A962
:105A500021F81500BDF93C100DF12A0020F81510B1
:105A6000681CC5B210219248FBF7A7FF08B9092DA1
:105A7000E7DB10218E48FBF7A0FF10B100208D4915
:105A80000870092D7AD1BDF91800BDF91A10084423
:105A9000BDF91C100844032190FBF1F00390BDF9FF
:105AA0001E00BDF920100844BDF92210084403214E
:105AB00090FBF1F00490BDF92400BDF926100844D4
:105AC000BDF928100844032190FBF1F00590DDE9B1
:105AD0000301401A0090DDE90401401A0190039986
